{
  "contractName": "ERC721SpaceShip",
  "abi": [
    {
      "constant": false,
      "inputs": [
        {
          "name": "_to",
          "type": "address"
        },
        {
          "name": "_tokenId",
          "type": "uint256"
        }
      ],
      "name": "transferFrom",
      "outputs": [],
      "payable": false,
      "stateMutability": "nonpayable",
      "type": "function"
    },
    {
      "constant": true,
      "inputs": [],
      "name": "name",
      "outputs": [
        {
          "name": "",
          "type": "string"
        }
      ],
      "payable": false,
      "stateMutability": "view",
      "type": "function"
    },
    {
      "constant": false,
      "inputs": [
        {
          "name": "_to",
          "type": "address"
        },
        {
          "name": "_tokenId",
          "type": "uint256"
        }
      ],
      "name": "approve",
      "outputs": [],
      "payable": false,
      "stateMutability": "nonpayable",
      "type": "function"
    },
    {
      "constant": true,
      "inputs": [],
      "name": "totalSupply",
      "outputs": [
        {
          "name": "_totalSupply",
          "type": "uint256"
        }
      ],
      "payable": false,
      "stateMutability": "view",
      "type": "function"
    },
    {
      "constant": true,
      "inputs": [
        {
          "name": "_tokenId",
          "type": "uint256"
        }
      ],
      "name": "approvedFor",
      "outputs": [
        {
          "name": "_approved",
          "type": "address"
        }
      ],
      "payable": false,
      "stateMutability": "view",
      "type": "function"
    },
    {
      "constant": true,
      "inputs": [
        {
          "name": "_owner",
          "type": "address"
        }
      ],
      "name": "tokensOf",
      "outputs": [
        {
          "name": "",
          "type": "uint256[]"
        }
      ],
      "payable": false,
      "stateMutability": "view",
      "type": "function"
    },
    {
      "constant": true,
      "inputs": [
        {
          "name": "_tokenId",
          "type": "uint256"
        }
      ],
      "name": "ownerOf",
      "outputs": [
        {
          "name": "_owner",
          "type": "address"
        }
      ],
      "payable": false,
      "stateMutability": "view",
      "type": "function"
    },
    {
      "constant": true,
      "inputs": [
        {
          "name": "_owner",
          "type": "address"
        }
      ],
      "name": "balanceOf",
      "outputs": [
        {
          "name": "_balance",
          "type": "uint256"
        }
      ],
      "payable": false,
      "stateMutability": "view",
      "type": "function"
    },
    {
      "constant": true,
      "inputs": [],
      "name": "owner",
      "outputs": [
        {
          "name": "",
          "type": "address"
        }
      ],
      "payable": false,
      "stateMutability": "view",
      "type": "function"
    },
    {
      "constant": true,
      "inputs": [],
      "name": "symbol",
      "outputs": [
        {
          "name": "",
          "type": "string"
        }
      ],
      "payable": false,
      "stateMutability": "view",
      "type": "function"
    },
    {
      "constant": false,
      "inputs": [
        {
          "name": "_tokenId",
          "type": "uint256"
        }
      ],
      "name": "removeApproval",
      "outputs": [],
      "payable": false,
      "stateMutability": "nonpayable",
      "type": "function"
    },
    {
      "constant": false,
      "inputs": [
        {
          "name": "_to",
          "type": "address"
        },
        {
          "name": "_tokenId",
          "type": "uint256"
        }
      ],
      "name": "transfer",
      "outputs": [],
      "payable": false,
      "stateMutability": "nonpayable",
      "type": "function"
    },
    {
      "constant": true,
      "inputs": [
        {
          "name": "",
          "type": "address"
        }
      ],
      "name": "BalanceOfEther",
      "outputs": [
        {
          "name": "",
          "type": "uint256"
        }
      ],
      "payable": false,
      "stateMutability": "view",
      "type": "function"
    },
    {
      "inputs": [],
      "payable": false,
      "stateMutability": "nonpayable",
      "type": "constructor"
    },
    {
      "anonymous": false,
      "inputs": [
        {
          "indexed": false,
          "name": "_tokenId",
          "type": "uint256"
        },
        {
          "indexed": false,
          "name": "_price",
          "type": "uint256"
        }
      ],
      "name": "EmitUpForSale",
      "type": "event"
    },
    {
      "anonymous": false,
      "inputs": [
        {
          "indexed": false,
          "name": "_tokenId",
          "type": "uint256"
        },
        {
          "indexed": false,
          "name": "_at",
          "type": "uint256"
        },
        {
          "indexed": false,
          "name": "_by",
          "type": "address"
        }
      ],
      "name": "EmitBought",
      "type": "event"
    },
    {
      "anonymous": false,
      "inputs": [
        {
          "indexed": false,
          "name": "_tokenId",
          "type": "uint256"
        }
      ],
      "name": "EmitSaleOfferRemoved",
      "type": "event"
    },
    {
      "anonymous": false,
      "inputs": [
        {
          "indexed": true,
          "name": "_from",
          "type": "address"
        },
        {
          "indexed": true,
          "name": "_to",
          "type": "address"
        },
        {
          "indexed": false,
          "name": "_tokenId",
          "type": "uint256"
        }
      ],
      "name": "Transfer",
      "type": "event"
    },
    {
      "anonymous": false,
      "inputs": [
        {
          "indexed": true,
          "name": "_owner",
          "type": "address"
        },
        {
          "indexed": true,
          "name": "_approved",
          "type": "address"
        },
        {
          "indexed": false,
          "name": "_tokenId",
          "type": "uint256"
        }
      ],
      "name": "Approval",
      "type": "event"
    },
    {
      "constant": true,
      "inputs": [
        {
          "name": "_tokenId",
          "type": "uint256"
        }
      ],
      "name": "spaceshipExist",
      "outputs": [
        {
          "name": "isIndeed",
          "type": "bool"
        }
      ],
      "payable": false,
      "stateMutability": "view",
      "type": "function"
    },
    {
      "constant": true,
      "inputs": [],
      "name": "getSpaceShipCount",
      "outputs": [
        {
          "name": "count",
          "type": "uint256"
        }
      ],
      "payable": false,
      "stateMutability": "view",
      "type": "function"
    },
    {
      "constant": true,
      "inputs": [
        {
          "name": "_tokenId",
          "type": "uint256"
        }
      ],
      "name": "getSpaceShip",
      "outputs": [
        {
          "name": "_name",
          "type": "bytes32"
        },
        {
          "name": "_typeOfShip",
          "type": "string"
        },
        {
          "name": "_ipfs",
          "type": "string"
        },
        {
          "name": "_price",
          "type": "uint256"
        },
        {
          "name": "_extractCapacity",
          "type": "uint256"
        },
        {
          "name": "_storageCapacity",
          "type": "uint256"
        },
        {
          "name": "_ownerOf",
          "type": "address"
        }
      ],
      "payable": false,
      "stateMutability": "view",
      "type": "function"
    },
    {
      "constant": false,
      "inputs": [
        {
          "name": "_tokenId",
          "type": "uint256"
        },
        {
          "name": "_name",
          "type": "bytes32"
        },
        {
          "name": "_typeOfShip",
          "type": "string"
        },
        {
          "name": "_ipfs",
          "type": "string"
        },
        {
          "name": "_price",
          "type": "uint256"
        },
        {
          "name": "_extractCapacity",
          "type": "uint256"
        },
        {
          "name": "_storageCapacity",
          "type": "uint256"
        }
      ],
      "name": "createSpaceShip",
      "outputs": [],
      "payable": false,
      "stateMutability": "nonpayable",
      "type": "function"
    },
    {
      "constant": false,
      "inputs": [],
      "name": "withdraw",
      "outputs": [],
      "payable": false,
      "stateMutability": "nonpayable",
      "type": "function"
    },
    {
      "constant": false,
      "inputs": [
        {
          "name": "_tokenId",
          "type": "uint256"
        },
        {
          "name": "_price",
          "type": "uint256"
        }
      ],
      "name": "sellSpaceShip",
      "outputs": [],
      "payable": false,
      "stateMutability": "nonpayable",
      "type": "function"
    },
    {
      "constant": false,
      "inputs": [
        {
          "name": "_tokenId",
          "type": "uint256"
        }
      ],
      "name": "buySpaceShip",
      "outputs": [],
      "payable": true,
      "stateMutability": "payable",
      "type": "function"
    },
    {
      "constant": false,
      "inputs": [
        {
          "name": "_tokenId",
          "type": "uint256"
        }
      ],
      "name": "removeSpaceShipFromSale",
      "outputs": [],
      "payable": false,
      "stateMutability": "nonpayable",
      "type": "function"
    }
  ],
  "bytecode": "0x60806040526040805190810160405280600f81526020017f53706163655368697020546f6b656e00000000000000000000000000000000008152506005908051906020019062000051929190620000f5565b506040805190810160405280600381526020017f5353540000000000000000000000000000000000000000000000000000000000815250600690805190602001906200009f929190620000f5565b50348015620000ad57600080fd5b5033600960006101000a81548173ffffffffffffffffffffffffffffffffffffffff021916908373ffffffffffffffffffffffffffffffffffffffff160217905550620001a4565b828054600181600116156101000203166002900490600052602060002090601f016020900481019282601f106200013857805160ff191683800117855562000169565b8280016001018555821562000169579182015b82811115620001685782518255916020019190600101906200014b565b5b5090506200017891906200017c565b5090565b620001a191905b808211156200019d57600081600090555060010162000183565b5090565b90565b611fbe80620001b46000396000f30060806040526004361061011d576000357c0100000000000000000000000000000000000000000000000000000000900463ffffffff16806301c6adc31461012257806306fdde031461016f578063095ea7b3146101ff57806318160ddd1461024c5780632a6dd48f146102775780633ccfd60b146102e457806344aef5f3146102fb5780635a3f2672146104645780635cdf9538146104fc57806362d7efff146105e15780636352211e146106015780636c050be71461066e57806370a08231146106a55780638da5cb5b146106fc5780638e91f9511461075357806395d89b41146107985780639bbe3ada14610828578063a9059cbb14610855578063b39a0817146108a2578063b9b18bd9146108cf578063d56ae44414610926575b600080fd5b34801561012e57600080fd5b5061016d600480360381019080803573ffffffffffffffffffffffffffffffffffffffff16906020019092919080359060200190929190505050610951565b005b34801561017b57600080fd5b50610184610ac4565b6040518080602001828103825283818151815260200191508051906020019080838360005b838110156101c45780820151818401526020810190506101a9565b50505050905090810190601f1680156101f15780820380516001836020036101000a031916815260200191505b509250505060405180910390f35b34801561020b57600080fd5b5061024a600480360381019080803573ffffffffffffffffffffffffffffffffffffffff16906020019092919080359060200190929190505050610b62565b005b34801561025857600080fd5b50610261610d1e565b6040518082815260200191505060405180910390f35b34801561028357600080fd5b506102a260048036038101908080359060200190929190505050610d27565b604051808273ffffffffffffffffffffffffffffffffffffffff1673ffffffffffffffffffffffffffffffffffffffff16815260200191505060405180910390f35b3480156102f057600080fd5b506102f9610d64565b005b34801561030757600080fd5b5061032660048036038101908080359060200190929190505050610e37565b60405180886000191660001916815260200180602001806020018781526020018681526020018581526020018473ffffffffffffffffffffffffffffffffffffffff1673ffffffffffffffffffffffffffffffffffffffff168152602001838103835289818151815260200191508051906020019080838360005b838110156103bc5780820151818401526020810190506103a1565b50505050905090810190601f1680156103e95780820380516001836020036101000a031916815260200191505b50838103825288818151815260200191508051906020019080838360005b83811015610422578082015181840152602081019050610407565b50505050905090810190601f16801561044f5780820380516001836020036101000a031916815260200191505b50995050505050505050505060405180910390f35b34801561047057600080fd5b506104a5600480360381019080803573ffffffffffffffffffffffffffffffffffffffff169060200190929190505050611024565b6040518080602001828103825283818151815260200191508051906020019060200280838360005b838110156104e85780820151818401526020810190506104cd565b505050509050019250505060405180910390f35b34801561050857600080fd5b506105df600480360381019080803590602001909291908035600019169060200190929190803590602001908201803590602001908080601f0160208091040260200160405190810160405280939291908181526020018383808284378201915050505050509192919290803590602001908201803590602001908080601f01602080910402602001604051908101604052809392919081815260200183838082843782019150505050505091929192908035906020019092919080359060200190929190803590602001909291905050506110bb565b005b6105ff600480360381019080803590602001909291905050506112aa565b005b34801561060d57600080fd5b5061062c6004803603810190808035906020019092919050505061147f565b604051808273ffffffffffffffffffffffffffffffffffffffff1673ffffffffffffffffffffffffffffffffffffffff16815260200191505060405180910390f35b34801561067a57600080fd5b506106a360048036038101908080359060200190929190803590602001909291905050506114bc565b005b3480156106b157600080fd5b506106e6600480360381019080803573ffffffffffffffffffffffffffffffffffffffff1690602001909291905050506115da565b6040518082815260200191505060405180910390f35b34801561070857600080fd5b50610711611626565b604051808273ffffffffffffffffffffffffffffffffffffffff1673ffffffffffffffffffffffffffffffffffffffff16815260200191505060405180910390f35b34801561075f57600080fd5b5061077e6004803603810190808035906020019092919050505061164c565b604051808215151515815260200191505060405180910390f35b3480156107a457600080fd5b506107ad6116ae565b6040518080602001828103825283818151815260200191508051906020019080838360005b838110156107ed5780820151818401526020810190506107d2565b50505050905090810190601f16801561081a5780820380516001836020036101000a031916815260200191505b509250505060405180910390f35b34801561083457600080fd5b506108536004803603810190808035906020019092919050505061174c565b005b34801561086157600080fd5b506108a0600480360381019080803573ffffffffffffffffffffffffffffffffffffffff169060200190929190803590602001909291905050506118b7565b005b3480156108ae57600080fd5b506108cd600480360381019080803590602001909291905050506119f1565b005b3480156108db57600080fd5b50610910600480360381019080803573ffffffffffffffffffffffffffffffffffffffff169060200190929190505050611af8565b6040518082815260200191505060405180910390f35b34801561093257600080fd5b5061093b611b10565b6040518082815260200191505060405180910390f35b80600073ffffffffffffffffffffffffffffffffffffffff166109738261147f565b73ffffffffffffffffffffffffffffffffffffffff161415151561099657600080fd5b3373ffffffffffffffffffffffffffffffffffffffff166004600084815260200190815260200160002060009054906101000a900473ffffffffffffffffffffffffffffffffffffffff1673ffffffffffffffffffffffffffffffffffffffff16141515610a0357600080fd5b600073ffffffffffffffffffffffffffffffffffffffff168373ffffffffffffffffffffffffffffffffffffffff1614151515610a3f57600080fd5b8273ffffffffffffffffffffffffffffffffffffffff16610a5f8361147f565b73ffffffffffffffffffffffffffffffffffffffff167fddf252ad1be2c89b69c2b068fc378daa952ba7f163c4a11628f55a4df523b3ef846040518082815260200191505060405180910390a3610abf610ab88361147f565b8484611b1d565b505050565b60058054600181600116156101000203166002900480601f016020809104026020016040519081016040528092919081815260200182805460018160011615610100020316600290048015610b5a5780601f10610b2f57610100808354040283529160200191610b5a565b820191906000526020600020905b815481529060010190602001808311610b3d57829003601f168201915b505050505081565b80600073ffffffffffffffffffffffffffffffffffffffff16610b848261147f565b73ffffffffffffffffffffffffffffffffffffffff1614151515610ba757600080fd5b813373ffffffffffffffffffffffffffffffffffffffff16610bc88261147f565b73ffffffffffffffffffffffffffffffffffffffff16141515610bea57600080fd5b8373ffffffffffffffffffffffffffffffffffffffff163373ffffffffffffffffffffffffffffffffffffffff1614151515610c2557600080fd5b600073ffffffffffffffffffffffffffffffffffffffff168473ffffffffffffffffffffffffffffffffffffffff1614151515610c6157600080fd5b836004600085815260200190815260200160002060006101000a81548173ffffffffffffffffffffffffffffffffffffffff021916908373ffffffffffffffffffffffffffffffffffffffff1602179055508373ffffffffffffffffffffffffffffffffffffffff163373ffffffffffffffffffffffffffffffffffffffff167f8c5be1e5ebec7d5bd14f71427d1e84f3dd0314c0f7b2291e5b200ac8c7c3b925856040518082815260200191505060405180910390a350505050565b60008054905090565b60006004600083815260200190815260200160002060009054906101000a900473ffffffffffffffffffffffffffffffffffffffff169050919050565b6000600a60003373ffffffffffffffffffffffffffffffffffffffff1673ffffffffffffffffffffffffffffffffffffffff1681526020019081526020016000205490506000600a60003373ffffffffffffffffffffffffffffffffffffffff1673ffffffffffffffffffffffffffffffffffffffff168152602001908152602001600020819055503373ffffffffffffffffffffffffffffffffffffffff166108fc829081150290604051600060405180830381858888f19350505050158015610e33573d6000803e3d6000fd5b5050565b60006060806000806000806007600089815260200190815260200160002060000154600760008a8152602001908152602001600020600101600760008b8152602001908152602001600020600201600760008c815260200190815260200160002060080154600760008d815260200190815260200160002060090154600760008e8152602001908152602001600020600a0154610ed38e61147f565b858054600181600116156101000203166002900480601f016020809104026020016040519081016040528092919081815260200182805460018160011615610100020316600290048015610f685780601f10610f3d57610100808354040283529160200191610f68565b820191906000526020600020905b815481529060010190602001808311610f4b57829003601f168201915b50505050509550848054600181600116156101000203166002900480601f0160208091040260200160405190810160405280929190818152602001828054600181600116156101000203166002900480156110045780601f10610fd957610100808354040283529160200191611004565b820191906000526020600020905b815481529060010190602001808311610fe757829003601f168201915b505050505094509650965096509650965096509650919395979092949650565b6060600260008373ffffffffffffffffffffffffffffffffffffffff1673ffffffffffffffffffffffffffffffffffffffff1681526020019081526020016000208054806020026020016040519081016040528092919081815260200182805480156110af57602002820191906000526020600020905b81548152602001906001019080831161109b575b50505050509050919050565b600960009054906101000a900473ffffffffffffffffffffffffffffffffffffffff1673ffffffffffffffffffffffffffffffffffffffff163373ffffffffffffffffffffffffffffffffffffffff1614151561111757600080fd5b6111208761164c565b1561112a57600080fd5b6111348733611b65565b61113e3388611bbb565b82600760008981526020019081526020016000206008018190555084600760008981526020019081526020016000206001019080519060200190611183929190611ec1565b5085600760008981526020019081526020016000206000018160001916905550836007600089815260200190815260200160002060020190805190602001906111cd929190611ec1565b508160076000898152602001908152602001600020600901819055508060076000898152602001908152602001600020600a0181905550336007600089815260200190815260200160002060030160006101000a81548173ffffffffffffffffffffffffffffffffffffffff021916908373ffffffffffffffffffffffffffffffffffffffff1602179055506001600888908060018154018082558091505090600182039060005260206000200160009091929091909150550360076000898152602001908152602001600020600b018190555050505050505050565b80600073ffffffffffffffffffffffffffffffffffffffff166112cc8261147f565b73ffffffffffffffffffffffffffffffffffffffff16141515156112ef57600080fd5b816000600760008381526020019081526020016000206008015411151561131557600080fd5b823373ffffffffffffffffffffffffffffffffffffffff166113368261147f565b73ffffffffffffffffffffffffffffffffffffffff161415151561135957600080fd5b600760008581526020019081526020016000206008015434101515611474576000600760008681526020019081526020016000206008018190555034600a60006113a28761147f565b73ffffffffffffffffffffffffffffffffffffffff1673ffffffffffffffffffffffffffffffffffffffff168152602001908152602001600020600082825401925050819055506113fc6113f58561147f565b3386611b1d565b7f80a902903a432d55fa4aacba4be2a79821bf5a27a98c69f914cfd93b1bd40aaf843433604051808481526020018381526020018273ffffffffffffffffffffffffffffffffffffffff1673ffffffffffffffffffffffffffffffffffffffff168152602001935050505060405180910390a1611479565b600080fd5b50505050565b60006001600083815260200190815260200160002060009054906101000a900473ffffffffffffffffffffffffffffffffffffffff169050919050565b81600073ffffffffffffffffffffffffffffffffffffffff166114de8261147f565b73ffffffffffffffffffffffffffffffffffffffff161415151561150157600080fd5b823373ffffffffffffffffffffffffffffffffffffffff166115228261147f565b73ffffffffffffffffffffffffffffffffffffffff1614151561154457600080fd5b836000600760008381526020019081526020016000206008015414151561156a57600080fd5b60008411151561157957600080fd5b8360076000878152602001908152602001600020600801819055507f48dfbd5e8c7a96b0c2dca11f83effeae25a0702dbff54c23fa88c97e8567b5428585604051808381526020018281526020019250505060405180910390a15050505050565b6000600260008373ffffffffffffffffffffffffffffffffffffffff1673ffffffffffffffffffffffffffffffffffffffff168152602001908152602001600020805490509050919050565b600960009054906101000a900473ffffffffffffffffffffffffffffffffffffffff1681565b600080600880549050141561166457600090506116a9565b81600860076000858152602001908152602001600020600b015481548110151561168a57fe5b906000526020600020015414156116a457600190506116a9565b600090505b919050565b60068054600181600116156101000203166002900480601f0160208091040260200160405190810160405280929190818152602001828054600181600116156101000203166002900480156117445780601f1061171957610100808354040283529160200191611744565b820191906000526020600020905b81548152906001019060200180831161172757829003601f168201915b505050505081565b80600073ffffffffffffffffffffffffffffffffffffffff1661176e8261147f565b73ffffffffffffffffffffffffffffffffffffffff161415151561179157600080fd5b813373ffffffffffffffffffffffffffffffffffffffff166117b28261147f565b73ffffffffffffffffffffffffffffffffffffffff161415156117d457600080fd5b600073ffffffffffffffffffffffffffffffffffffffff166004600085815260200190815260200160002060009054906101000a900473ffffffffffffffffffffffffffffffffffffffff1673ffffffffffffffffffffffffffffffffffffffff161415151561184357600080fd5b61184c83611c85565b600073ffffffffffffffffffffffffffffffffffffffff163373ffffffffffffffffffffffffffffffffffffffff167f8c5be1e5ebec7d5bd14f71427d1e84f3dd0314c0f7b2291e5b200ac8c7c3b925856040518082815260200191505060405180910390a3505050565b80600073ffffffffffffffffffffffffffffffffffffffff166118d98261147f565b73ffffffffffffffffffffffffffffffffffffffff16141515156118fc57600080fd5b813373ffffffffffffffffffffffffffffffffffffffff1661191d8261147f565b73ffffffffffffffffffffffffffffffffffffffff1614151561193f57600080fd5b600073ffffffffffffffffffffffffffffffffffffffff168473ffffffffffffffffffffffffffffffffffffffff161415151561197b57600080fd5b611986338585611b1d565b8373ffffffffffffffffffffffffffffffffffffffff163373ffffffffffffffffffffffffffffffffffffffff167fddf252ad1be2c89b69c2b068fc378daa952ba7f163c4a11628f55a4df523b3ef856040518082815260200191505060405180910390a350505050565b80600073ffffffffffffffffffffffffffffffffffffffff16611a138261147f565b73ffffffffffffffffffffffffffffffffffffffff1614151515611a3657600080fd5b813373ffffffffffffffffffffffffffffffffffffffff16611a578261147f565b73ffffffffffffffffffffffffffffffffffffffff16141515611a7957600080fd5b8260006007600083815260200190815260200160002060080154111515611a9f57600080fd5b600060076000868152602001908152602001600020600801819055507fe4e97fb1e5ca0426d6f22dde5a4750bcbf8317d2b96a51a3e73b6f2329dd4f3a846040518082815260200191505060405180910390a150505050565b600a6020528060005260406000206000915090505481565b6000600880549050905090565b611b2681611c85565b611b308382611cdb565b60006007600083815260200190815260200160002060080181905550611b568183611b65565b611b608282611bbb565b505050565b806001600084815260200190815260200160002060006101000a81548173ffffffffffffffffffffffffffffffffffffffff021916908373ffffffffffffffffffffffffffffffffffffffff1602179055505050565b600260008373ffffffffffffffffffffffffffffffffffffffff1673ffffffffffffffffffffffffffffffffffffffff1681526020019081526020016000208190806001815401808255809150509060018203906000526020600020016000909192909190915055506001600260008473ffffffffffffffffffffffffffffffffffffffff1673ffffffffffffffffffffffffffffffffffffffff168152602001908152602001600020805490500360036000838152602001908152602001600020819055505050565b60006004600083815260200190815260200160002060006101000a81548173ffffffffffffffffffffffffffffffffffffffff021916908373ffffffffffffffffffffffffffffffffffffffff16021790555050565b6000806000600260008673ffffffffffffffffffffffffffffffffffffffff1673ffffffffffffffffffffffffffffffffffffffff16815260200190815260200160002080549050925060036000858152602001908152602001600020549150600260008673ffffffffffffffffffffffffffffffffffffffff1673ffffffffffffffffffffffffffffffffffffffff16815260200190815260200160002060018403815481101515611d8a57fe5b9060005260206000200154905080600260008773ffffffffffffffffffffffffffffffffffffffff1673ffffffffffffffffffffffffffffffffffffffff16815260200190815260200160002083815481101515611de457fe5b9060005260206000200181905550816003600083815260200190815260200160002081905550600260008673ffffffffffffffffffffffffffffffffffffffff1673ffffffffffffffffffffffffffffffffffffffff16815260200190815260200160002060018403815481101515611e5957fe5b9060005260206000200160009055600260008673ffffffffffffffffffffffffffffffffffffffff1673ffffffffffffffffffffffffffffffffffffffff168152602001908152602001600020805480919060019003611eb99190611f41565b505050505050565b828054600181600116156101000203166002900490600052602060002090601f016020900481019282601f10611f0257805160ff1916838001178555611f30565b82800160010185558215611f30579182015b82811115611f2f578251825591602001919060010190611f14565b5b509050611f3d9190611f6d565b5090565b815481835581811115611f6857818360005260206000209182019101611f679190611f6d565b5b505050565b611f8f91905b80821115611f8b576000816000905550600101611f73565b5090565b905600a165627a7a723058204ef6cda217433c3993fc9916004b16e3357608a39f7492952285566195e0fac70029",
  "source": "pragma solidity ^0.4.18;\n\nimport \"./SimpleERC721.sol\";\n\n  \t/**\n\t * @title ERC721SpaceShip\n\t *\n\t * A script that manages selling of spaceships in the Universe\n\t*/\n\ncontract ERC721SpaceShip is SimpleERC721 {\n\n    // -----------------------------------------------------------------------------------------------------------\n    // ------------------------------------------------ Variables ------------------------------------------------\n    // -----------------------------------------------------------------------------------------------------------\n\n    string public name = \"SpaceShip Token\";\n    string public symbol = \"SST\";\n\n    struct SpaceShip {\n      //uint id;\n      bytes32 name;\n      string typeOfShip;\n      string ipfs;\n      address owner;\n      // address discoveredBy;\n      uint x;\n      uint y;\n      uint z;\n      //bool discovered;\n      bool forSale;\n      uint price; // 0 => not for sale\n      uint extractCapacity;\n      uint storageCapacity;\n      uint spaceshipPositionInList;\n    }\n    mapping (uint => SpaceShip) spaceships;\n    uint[] private spaceshipsList; // WARNING: private is still readable ?\n\n    // the one who deployed the smart contract\n    address public owner;\n\n    // The ether balance of all users of the smart contract\n    mapping(address => uint) public BalanceOfEther;\n\n\n\n    // -----------------------------------------------------------------------------------------------------------\n    // ------------------------------------------------- Constructor ---------------------------------------------\n    // -----------------------------------------------------------------------------------------------------------\n\n    constructor() public {\n        owner = msg.sender;\n    }\n\n\n    // -----------------------------------------------------------------------------------------------------------\n    // -------------------------------------------------- Events -------------------------------------------------\n    // -----------------------------------------------------------------------------------------------------------\n\n    event EmitUpForSale(uint256 _tokenId, uint256 _price);\n    event EmitBought(uint256 _tokenId, uint256 _at, address _by);\n    event EmitSaleOfferRemoved(uint256 _tokenId);\n\n\n    // -----------------------------------------------------------------------------------------------------------\n    // -------------------------------------------------- Modifiers ----------------------------------------------\n    // -----------------------------------------------------------------------------------------------------------\n\n    modifier onlyNonexistentToken(uint _tokenId) {\n        require(spaceships[_tokenId].owner == address(0));\n        _;\n    }\n\n    modifier isUpForSale(uint _tokenId) {\n        require(spaceships[_tokenId].price > 0);\n        _;\n    }\n\n    modifier isNotUpForSale(uint _tokenId) {\n        require(spaceships[_tokenId].price == 0);\n        _;\n    }\n\n    modifier onlyNotOwnerOfToken(uint _tokenId) {\n        require(ownerOf(_tokenId) != msg.sender);\n        _;\n    }\n\n    function spaceshipExist(uint _tokenId) public constant returns(bool isIndeed) {\n      if(spaceshipsList.length == 0) return false;\n      if(spaceshipsList[spaceships[_tokenId].spaceshipPositionInList] == _tokenId){\n        return true;\n      }else{\n        return false;\n      }\n    }\n    // -----------------------------------------------------------------------------------------------------------\n    // ------------------------------------------------ View functions -------------------------------------------\n    // -----------------------------------------------------------------------------------------------------------\n\n    function getSpaceShipCount() public constant returns(uint count) {\n      return spaceshipsList.length;\n    }\n    //constant au lieu de view\n    function getSpaceShip(uint _tokenId) public constant returns( bytes32 _name, string _typeOfShip, string _ipfs, uint _price, uint _extractCapacity, uint _storageCapacity, address _ownerOf){\n      return (spaceships[_tokenId].name, spaceships[_tokenId].typeOfShip, spaceships[_tokenId].ipfs, spaceships[_tokenId].price, spaceships[_tokenId].extractCapacity, spaceships[_tokenId].storageCapacity, ownerOf(_tokenId));\n    }\n\n    // -----------------------------------------------------------------------------------------------------------\n    // --------------------------------------------- Core Public functions ---------------------------------------\n    // -----------------------------------------------------------------------------------------------------------\n    /// @dev Create a SpaceShip\n    function createSpaceShip(uint _tokenId, bytes32 _name, string _typeOfShip, string _ipfs, uint _price, uint _extractCapacity, uint _storageCapacity) public\n    {\n        if(msg.sender != owner) revert();\n        if(spaceshipExist(_tokenId)) revert();\n        _setTokenOwner(_tokenId, msg.sender);\n        _addTokenToOwnersList(msg.sender, _tokenId);\n        spaceships[_tokenId].price = _price;\n        spaceships[_tokenId].typeOfShip = _typeOfShip;\n        spaceships[_tokenId].name = _name;\n        spaceships[_tokenId].ipfs = _ipfs;\n        spaceships[_tokenId].extractCapacity = _extractCapacity;\n        spaceships[_tokenId].storageCapacity = _storageCapacity;\n        spaceships[_tokenId].owner = msg.sender;\n        spaceships[_tokenId].spaceshipPositionInList = spaceshipsList.push(_tokenId) - 1;\n\n    }\n    /// @dev withdraw ether off the contract\n    function withdraw() public\n    {\n        uint amount = BalanceOfEther[msg.sender];\n        BalanceOfEther[msg.sender] = 0;\n        msg.sender.transfer(amount);\n    }\n\n    /// @dev putting token up for sale\n    /// @notice the _price is in Wei\n    function sellSpaceShip (uint _tokenId, uint _price) public onlyExtantToken (_tokenId) onlyOwnerOfToken (_tokenId) isNotUpForSale(_tokenId) {\n        require(_price > 0);\n        spaceships[_tokenId].price = _price;\n        emit EmitUpForSale(_tokenId, _price);\n    }\n\n    /// @dev buying token from someone\n    function buySpaceShip (uint _tokenId) payable public onlyExtantToken (_tokenId) isUpForSale (_tokenId) onlyNotOwnerOfToken (_tokenId) {\n      if(msg.value >= spaceships[_tokenId].price){\n        spaceships[_tokenId].price = 0;\n        BalanceOfEther[ownerOf(_tokenId)] += msg.value;\n        _clearApprovalAndTransfer(ownerOf(_tokenId), msg.sender, _tokenId);\n        emit EmitBought(_tokenId, msg.value, msg.sender);\n      }else{\n        revert();\n      }\n    }\n\n    /// @dev removing a sale proposition\n    function removeSpaceShipFromSale (uint _tokenId) public onlyExtantToken (_tokenId) onlyOwnerOfToken (_tokenId) isUpForSale (_tokenId) {\n        spaceships[_tokenId].price = 0;\n        emit EmitSaleOfferRemoved(_tokenId);\n    }\n\n    // -----------------------------------------------------------------------------------------------------------\n    // ----------------------------------------------- Internal functions ----------------------------------------\n    // -----------------------------------------------------------------------------------------------------------\n\n    // calls all the internal functions above, to transfer a token from one user to another\n    // changed to nullify the selling offer when a token changes hands\n    function _clearApprovalAndTransfer(address _from, address _to, uint _tokenId) internal\n    {\n        _clearTokenApproval(_tokenId);\n        _removeTokenFromOwnersList(_from, _tokenId);\n\n        spaceships[_tokenId].price = 0;\n\n        _setTokenOwner(_tokenId, _to);\n        _addTokenToOwnersList(_to, _tokenId);\n    }\n}\n\n// test test\n",
  "sourcePath": "/home/azurrobotix/src/decentralized_game/contracts/ERC721SpaceShip.sol",
  "compiler": {
    "name": "solc",
    "version": "0.4.23+commit.124ca40d.Emscripten.clang"
  },
  "schemaVersion": "2.0.0",
  "updatedAt": "2018-04-25T21:47:29.109Z"
}