{
  "contractName": "ERC721SpaceShip",
  "abi": [
    {
      "constant": false,
      "inputs": [
        {
          "name": "_to",
          "type": "address"
        },
        {
          "name": "_tokenId",
          "type": "uint256"
        }
      ],
      "name": "transferFrom",
      "outputs": [],
      "payable": false,
      "stateMutability": "nonpayable",
      "type": "function"
    },
    {
      "constant": true,
      "inputs": [],
      "name": "name",
      "outputs": [
        {
          "name": "",
          "type": "string"
        }
      ],
      "payable": false,
      "stateMutability": "view",
      "type": "function"
    },
    {
      "constant": false,
      "inputs": [
        {
          "name": "_to",
          "type": "address"
        },
        {
          "name": "_tokenId",
          "type": "uint256"
        }
      ],
      "name": "approve",
      "outputs": [],
      "payable": false,
      "stateMutability": "nonpayable",
      "type": "function"
    },
    {
      "constant": true,
      "inputs": [],
      "name": "totalSupply",
      "outputs": [
        {
          "name": "_totalSupply",
          "type": "uint256"
        }
      ],
      "payable": false,
      "stateMutability": "view",
      "type": "function"
    },
    {
      "constant": true,
      "inputs": [
        {
          "name": "_tokenId",
          "type": "uint256"
        }
      ],
      "name": "approvedFor",
      "outputs": [
        {
          "name": "_approved",
          "type": "address"
        }
      ],
      "payable": false,
      "stateMutability": "view",
      "type": "function"
    },
    {
      "constant": true,
      "inputs": [
        {
          "name": "_owner",
          "type": "address"
        }
      ],
      "name": "tokensOf",
      "outputs": [
        {
          "name": "",
          "type": "uint256[]"
        }
      ],
      "payable": false,
      "stateMutability": "view",
      "type": "function"
    },
    {
      "constant": true,
      "inputs": [
        {
          "name": "_tokenId",
          "type": "uint256"
        }
      ],
      "name": "ownerOf",
      "outputs": [
        {
          "name": "_owner",
          "type": "address"
        }
      ],
      "payable": false,
      "stateMutability": "view",
      "type": "function"
    },
    {
      "constant": true,
      "inputs": [
        {
          "name": "_owner",
          "type": "address"
        }
      ],
      "name": "balanceOf",
      "outputs": [
        {
          "name": "_balance",
          "type": "uint256"
        }
      ],
      "payable": false,
      "stateMutability": "view",
      "type": "function"
    },
    {
      "constant": true,
      "inputs": [],
      "name": "owner",
      "outputs": [
        {
          "name": "",
          "type": "address"
        }
      ],
      "payable": false,
      "stateMutability": "view",
      "type": "function"
    },
    {
      "constant": true,
      "inputs": [],
      "name": "symbol",
      "outputs": [
        {
          "name": "",
          "type": "string"
        }
      ],
      "payable": false,
      "stateMutability": "view",
      "type": "function"
    },
    {
      "constant": false,
      "inputs": [
        {
          "name": "_tokenId",
          "type": "uint256"
        }
      ],
      "name": "removeApproval",
      "outputs": [],
      "payable": false,
      "stateMutability": "nonpayable",
      "type": "function"
    },
    {
      "constant": false,
      "inputs": [
        {
          "name": "_to",
          "type": "address"
        },
        {
          "name": "_tokenId",
          "type": "uint256"
        }
      ],
      "name": "transfer",
      "outputs": [],
      "payable": false,
      "stateMutability": "nonpayable",
      "type": "function"
    },
    {
      "constant": true,
      "inputs": [
        {
          "name": "",
          "type": "address"
        }
      ],
      "name": "BalanceOfEther",
      "outputs": [
        {
          "name": "",
          "type": "uint256"
        }
      ],
      "payable": false,
      "stateMutability": "view",
      "type": "function"
    },
    {
      "inputs": [],
      "payable": false,
      "stateMutability": "nonpayable",
      "type": "constructor"
    },
    {
      "anonymous": false,
      "inputs": [
        {
          "indexed": false,
          "name": "_tokenId",
          "type": "uint256"
        },
        {
          "indexed": false,
          "name": "_price",
          "type": "uint256"
        }
      ],
      "name": "EmitUpForSale",
      "type": "event"
    },
    {
      "anonymous": false,
      "inputs": [
        {
          "indexed": false,
          "name": "_tokenId",
          "type": "uint256"
        },
        {
          "indexed": false,
          "name": "_at",
          "type": "uint256"
        },
        {
          "indexed": false,
          "name": "_by",
          "type": "address"
        }
      ],
      "name": "EmitBought",
      "type": "event"
    },
    {
      "anonymous": false,
      "inputs": [
        {
          "indexed": false,
          "name": "_tokenId",
          "type": "uint256"
        }
      ],
      "name": "EmitSaleOfferRemoved",
      "type": "event"
    },
    {
      "anonymous": false,
      "inputs": [
        {
          "indexed": true,
          "name": "_from",
          "type": "address"
        },
        {
          "indexed": true,
          "name": "_to",
          "type": "address"
        },
        {
          "indexed": false,
          "name": "_tokenId",
          "type": "uint256"
        }
      ],
      "name": "Transfer",
      "type": "event"
    },
    {
      "anonymous": false,
      "inputs": [
        {
          "indexed": true,
          "name": "_owner",
          "type": "address"
        },
        {
          "indexed": true,
          "name": "_approved",
          "type": "address"
        },
        {
          "indexed": false,
          "name": "_tokenId",
          "type": "uint256"
        }
      ],
      "name": "Approval",
      "type": "event"
    },
    {
      "constant": true,
      "inputs": [],
      "name": "getSpaceShipCount",
      "outputs": [
        {
          "name": "count",
          "type": "uint256"
        }
      ],
      "payable": false,
      "stateMutability": "view",
      "type": "function"
    },
    {
      "constant": true,
      "inputs": [
        {
          "name": "_tokenId",
          "type": "uint256"
        }
      ],
      "name": "getSpaceShip",
      "outputs": [
        {
          "name": "_name",
          "type": "bytes32"
        },
        {
          "name": "_typeOfShip",
          "type": "string"
        },
        {
          "name": "_ipfs",
          "type": "string"
        },
        {
          "name": "_price",
          "type": "uint256"
        },
        {
          "name": "_extractCapacity",
          "type": "uint256"
        },
        {
          "name": "_storageCapacity",
          "type": "uint256"
        }
      ],
      "payable": false,
      "stateMutability": "view",
      "type": "function"
    },
    {
      "constant": false,
      "inputs": [
        {
          "name": "_tokenId",
          "type": "uint256"
        },
        {
          "name": "_name",
          "type": "bytes32"
        },
        {
          "name": "_typeOfShip",
          "type": "string"
        },
        {
          "name": "_ipfs",
          "type": "string"
        },
        {
          "name": "_price",
          "type": "uint256"
        },
        {
          "name": "_extractCapacity",
          "type": "uint256"
        },
        {
          "name": "_storageCapacity",
          "type": "uint256"
        }
      ],
      "name": "createSpaceShip",
      "outputs": [],
      "payable": false,
      "stateMutability": "nonpayable",
      "type": "function"
    },
    {
      "constant": false,
      "inputs": [],
      "name": "withdraw",
      "outputs": [],
      "payable": false,
      "stateMutability": "nonpayable",
      "type": "function"
    },
    {
      "constant": false,
      "inputs": [
        {
          "name": "_tokenId",
          "type": "uint256"
        },
        {
          "name": "_price",
          "type": "uint256"
        }
      ],
      "name": "sellSpaceShip",
      "outputs": [],
      "payable": false,
      "stateMutability": "nonpayable",
      "type": "function"
    },
    {
      "constant": false,
      "inputs": [
        {
          "name": "_tokenId",
          "type": "uint256"
        }
      ],
      "name": "buySpaceShip",
      "outputs": [],
      "payable": true,
      "stateMutability": "payable",
      "type": "function"
    },
    {
      "constant": false,
      "inputs": [
        {
          "name": "_tokenId",
          "type": "uint256"
        }
      ],
      "name": "removeSpaceShipFromSale",
      "outputs": [],
      "payable": false,
      "stateMutability": "nonpayable",
      "type": "function"
    }
  ],
  "bytecode": "0x60806040526040805190810160405280600f81526020017f53706163655368697020546f6b656e00000000000000000000000000000000008152506005908051906020019062000051929190620000f5565b506040805190810160405280600381526020017f5353540000000000000000000000000000000000000000000000000000000000815250600690805190602001906200009f929190620000f5565b50348015620000ad57600080fd5b5033600960006101000a81548173ffffffffffffffffffffffffffffffffffffffff021916908373ffffffffffffffffffffffffffffffffffffffff160217905550620001a4565b828054600181600116156101000203166002900490600052602060002090601f016020900481019282601f106200013857805160ff191683800117855562000169565b8280016001018555821562000169579182015b82811115620001685782518255916020019190600101906200014b565b5b5090506200017891906200017c565b5090565b620001a191905b808211156200019d57600081600090555060010162000183565b5090565b90565b611e4a80620001b46000396000f300608060405260043610610112576000357c0100000000000000000000000000000000000000000000000000000000900463ffffffff16806301c6adc31461011757806306fdde0314610164578063095ea7b3146101f457806318160ddd146102415780632a6dd48f1461026c5780633ccfd60b146102d957806344aef5f3146102f05780635a3f2672146104265780635cdf9538146104be57806362d7efff146105a35780636352211e146105c35780636c050be71461063057806370a08231146106675780638da5cb5b146106be57806395d89b41146107155780639bbe3ada146107a5578063a9059cbb146107d2578063b39a08171461081f578063b9b18bd91461084c578063d56ae444146108a3575b600080fd5b34801561012357600080fd5b50610162600480360381019080803573ffffffffffffffffffffffffffffffffffffffff169060200190929190803590602001909291905050506108ce565b005b34801561017057600080fd5b50610179610a41565b6040518080602001828103825283818151815260200191508051906020019080838360005b838110156101b957808201518184015260208101905061019e565b50505050905090810190601f1680156101e65780820380516001836020036101000a031916815260200191505b509250505060405180910390f35b34801561020057600080fd5b5061023f600480360381019080803573ffffffffffffffffffffffffffffffffffffffff16906020019092919080359060200190929190505050610adf565b005b34801561024d57600080fd5b50610256610c9b565b6040518082815260200191505060405180910390f35b34801561027857600080fd5b5061029760048036038101908080359060200190929190505050610ca4565b604051808273ffffffffffffffffffffffffffffffffffffffff1673ffffffffffffffffffffffffffffffffffffffff16815260200191505060405180910390f35b3480156102e557600080fd5b506102ee610ce1565b005b3480156102fc57600080fd5b5061031b60048036038101908080359060200190929190505050610db4565b6040518087600019166000191681526020018060200180602001868152602001858152602001848152602001838103835288818151815260200191508051906020019080838360005b8381101561037f578082015181840152602081019050610364565b50505050905090810190601f1680156103ac5780820380516001836020036101000a031916815260200191505b50838103825287818151815260200191508051906020019080838360005b838110156103e55780820151818401526020810190506103ca565b50505050905090810190601f1680156104125780820380516001836020036101000a031916815260200191505b509850505050505050505060405180910390f35b34801561043257600080fd5b50610467600480360381019080803573ffffffffffffffffffffffffffffffffffffffff169060200190929190505050610f93565b6040518080602001828103825283818151815260200191508051906020019060200280838360005b838110156104aa57808201518184015260208101905061048f565b505050509050019250505060405180910390f35b3480156104ca57600080fd5b506105a1600480360381019080803590602001909291908035600019169060200190929190803590602001908201803590602001908080601f0160208091040260200160405190810160405280939291908181526020018383808284378201915050505050509192919290803590602001908201803590602001908080601f016020809104026020016040519081016040528093929190818152602001838380828437820191505050505050919291929080359060200190929190803590602001909291908035906020019092919050505061102a565b005b6105c16004803603810190808035906020019092919050505061119d565b005b3480156105cf57600080fd5b506105ee6004803603810190808035906020019092919050505061136d565b604051808273ffffffffffffffffffffffffffffffffffffffff1673ffffffffffffffffffffffffffffffffffffffff16815260200191505060405180910390f35b34801561063c57600080fd5b5061066560048036038101908080359060200190929190803590602001909291905050506113aa565b005b34801561067357600080fd5b506106a8600480360381019080803573ffffffffffffffffffffffffffffffffffffffff1690602001909291905050506114c8565b6040518082815260200191505060405180910390f35b3480156106ca57600080fd5b506106d3611514565b604051808273ffffffffffffffffffffffffffffffffffffffff1673ffffffffffffffffffffffffffffffffffffffff16815260200191505060405180910390f35b34801561072157600080fd5b5061072a61153a565b6040518080602001828103825283818151815260200191508051906020019080838360005b8381101561076a57808201518184015260208101905061074f565b50505050905090810190601f1680156107975780820380516001836020036101000a031916815260200191505b509250505060405180910390f35b3480156107b157600080fd5b506107d0600480360381019080803590602001909291905050506115d8565b005b3480156107de57600080fd5b5061081d600480360381019080803573ffffffffffffffffffffffffffffffffffffffff16906020019092919080359060200190929190505050611743565b005b34801561082b57600080fd5b5061084a6004803603810190808035906020019092919050505061187d565b005b34801561085857600080fd5b5061088d600480360381019080803573ffffffffffffffffffffffffffffffffffffffff169060200190929190505050611984565b6040518082815260200191505060405180910390f35b3480156108af57600080fd5b506108b861199c565b6040518082815260200191505060405180910390f35b80600073ffffffffffffffffffffffffffffffffffffffff166108f08261136d565b73ffffffffffffffffffffffffffffffffffffffff161415151561091357600080fd5b3373ffffffffffffffffffffffffffffffffffffffff166004600084815260200190815260200160002060009054906101000a900473ffffffffffffffffffffffffffffffffffffffff1673ffffffffffffffffffffffffffffffffffffffff1614151561098057600080fd5b600073ffffffffffffffffffffffffffffffffffffffff168373ffffffffffffffffffffffffffffffffffffffff16141515156109bc57600080fd5b8273ffffffffffffffffffffffffffffffffffffffff166109dc8361136d565b73ffffffffffffffffffffffffffffffffffffffff167fddf252ad1be2c89b69c2b068fc378daa952ba7f163c4a11628f55a4df523b3ef846040518082815260200191505060405180910390a3610a3c610a358361136d565b84846119a9565b505050565b60058054600181600116156101000203166002900480601f016020809104026020016040519081016040528092919081815260200182805460018160011615610100020316600290048015610ad75780601f10610aac57610100808354040283529160200191610ad7565b820191906000526020600020905b815481529060010190602001808311610aba57829003601f168201915b505050505081565b80600073ffffffffffffffffffffffffffffffffffffffff16610b018261136d565b73ffffffffffffffffffffffffffffffffffffffff1614151515610b2457600080fd5b813373ffffffffffffffffffffffffffffffffffffffff16610b458261136d565b73ffffffffffffffffffffffffffffffffffffffff16141515610b6757600080fd5b8373ffffffffffffffffffffffffffffffffffffffff163373ffffffffffffffffffffffffffffffffffffffff1614151515610ba257600080fd5b600073ffffffffffffffffffffffffffffffffffffffff168473ffffffffffffffffffffffffffffffffffffffff1614151515610bde57600080fd5b836004600085815260200190815260200160002060006101000a81548173ffffffffffffffffffffffffffffffffffffffff021916908373ffffffffffffffffffffffffffffffffffffffff1602179055508373ffffffffffffffffffffffffffffffffffffffff163373ffffffffffffffffffffffffffffffffffffffff167f8c5be1e5ebec7d5bd14f71427d1e84f3dd0314c0f7b2291e5b200ac8c7c3b925856040518082815260200191505060405180910390a350505050565b60008054905090565b60006004600083815260200190815260200160002060009054906101000a900473ffffffffffffffffffffffffffffffffffffffff169050919050565b6000600a60003373ffffffffffffffffffffffffffffffffffffffff1673ffffffffffffffffffffffffffffffffffffffff1681526020019081526020016000205490506000600a60003373ffffffffffffffffffffffffffffffffffffffff1673ffffffffffffffffffffffffffffffffffffffff168152602001908152602001600020819055503373ffffffffffffffffffffffffffffffffffffffff166108fc829081150290604051600060405180830381858888f19350505050158015610db0573d6000803e3d6000fd5b5050565b60006060806000806000600760008881526020019081526020016000206000015460076000898152602001908152602001600020600101600760008a8152602001908152602001600020600201600760008b815260200190815260200160002060080154600760008c815260200190815260200160002060090154600760008d8152602001908152602001600020600a0154848054600181600116156101000203166002900480601f016020809104026020016040519081016040528092919081815260200182805460018160011615610100020316600290048015610edb5780601f10610eb057610100808354040283529160200191610edb565b820191906000526020600020905b815481529060010190602001808311610ebe57829003601f168201915b50505050509450838054600181600116156101000203166002900480601f016020809104026020016040519081016040528092919081815260200182805460018160011615610100020316600290048015610f775780601f10610f4c57610100808354040283529160200191610f77565b820191906000526020600020905b815481529060010190602001808311610f5a57829003601f168201915b5050505050935095509550955095509550955091939550919395565b6060600260008373ffffffffffffffffffffffffffffffffffffffff1673ffffffffffffffffffffffffffffffffffffffff16815260200190815260200160002080548060200260200160405190810160405280929190818152602001828054801561101e57602002820191906000526020600020905b81548152602001906001019080831161100a575b50505050509050919050565b600960009054906101000a900473ffffffffffffffffffffffffffffffffffffffff1673ffffffffffffffffffffffffffffffffffffffff163373ffffffffffffffffffffffffffffffffffffffff1614151561108657600080fd5b826007600089815260200190815260200160002060080181905550846007600089815260200190815260200160002060010190805190602001906110cb929190611d4d565b508560076000898152602001908152602001600020600001816000191690555083600760008981526020019081526020016000206002019080519060200190611115929190611d4d565b508160076000898152602001908152602001600020600901819055508060076000898152602001908152602001600020600a01819055506001600888908060018154018082558091505090600182039060005260206000200160009091929091909150550360076000898152602001908152602001600020600b018190555050505050505050565b80600073ffffffffffffffffffffffffffffffffffffffff166111bf8261136d565b73ffffffffffffffffffffffffffffffffffffffff16141515156111e257600080fd5b816000600760008381526020019081526020016000206008015411151561120857600080fd5b823373ffffffffffffffffffffffffffffffffffffffff166112298261136d565b73ffffffffffffffffffffffffffffffffffffffff161415151561124c57600080fd5b60076000858152602001908152602001600020600801543414151561127057600080fd5b6000600760008681526020019081526020016000206008018190555034600a600061129a8761136d565b73ffffffffffffffffffffffffffffffffffffffff1673ffffffffffffffffffffffffffffffffffffffff168152602001908152602001600020600082825401925050819055506112f46112ed8561136d565b33866119a9565b7f80a902903a432d55fa4aacba4be2a79821bf5a27a98c69f914cfd93b1bd40aaf843433604051808481526020018381526020018273ffffffffffffffffffffffffffffffffffffffff1673ffffffffffffffffffffffffffffffffffffffff168152602001935050505060405180910390a150505050565b60006001600083815260200190815260200160002060009054906101000a900473ffffffffffffffffffffffffffffffffffffffff169050919050565b81600073ffffffffffffffffffffffffffffffffffffffff166113cc8261136d565b73ffffffffffffffffffffffffffffffffffffffff16141515156113ef57600080fd5b823373ffffffffffffffffffffffffffffffffffffffff166114108261136d565b73ffffffffffffffffffffffffffffffffffffffff1614151561143257600080fd5b836000600760008381526020019081526020016000206008015414151561145857600080fd5b60008411151561146757600080fd5b8360076000878152602001908152602001600020600801819055507f48dfbd5e8c7a96b0c2dca11f83effeae25a0702dbff54c23fa88c97e8567b5428585604051808381526020018281526020019250505060405180910390a15050505050565b6000600260008373ffffffffffffffffffffffffffffffffffffffff1673ffffffffffffffffffffffffffffffffffffffff168152602001908152602001600020805490509050919050565b600960009054906101000a900473ffffffffffffffffffffffffffffffffffffffff1681565b60068054600181600116156101000203166002900480601f0160208091040260200160405190810160405280929190818152602001828054600181600116156101000203166002900480156115d05780601f106115a5576101008083540402835291602001916115d0565b820191906000526020600020905b8154815290600101906020018083116115b357829003601f168201915b505050505081565b80600073ffffffffffffffffffffffffffffffffffffffff166115fa8261136d565b73ffffffffffffffffffffffffffffffffffffffff161415151561161d57600080fd5b813373ffffffffffffffffffffffffffffffffffffffff1661163e8261136d565b73ffffffffffffffffffffffffffffffffffffffff1614151561166057600080fd5b600073ffffffffffffffffffffffffffffffffffffffff166004600085815260200190815260200160002060009054906101000a900473ffffffffffffffffffffffffffffffffffffffff1673ffffffffffffffffffffffffffffffffffffffff16141515156116cf57600080fd5b6116d8836119f1565b600073ffffffffffffffffffffffffffffffffffffffff163373ffffffffffffffffffffffffffffffffffffffff167f8c5be1e5ebec7d5bd14f71427d1e84f3dd0314c0f7b2291e5b200ac8c7c3b925856040518082815260200191505060405180910390a3505050565b80600073ffffffffffffffffffffffffffffffffffffffff166117658261136d565b73ffffffffffffffffffffffffffffffffffffffff161415151561178857600080fd5b813373ffffffffffffffffffffffffffffffffffffffff166117a98261136d565b73ffffffffffffffffffffffffffffffffffffffff161415156117cb57600080fd5b600073ffffffffffffffffffffffffffffffffffffffff168473ffffffffffffffffffffffffffffffffffffffff161415151561180757600080fd5b6118123385856119a9565b8373ffffffffffffffffffffffffffffffffffffffff163373ffffffffffffffffffffffffffffffffffffffff167fddf252ad1be2c89b69c2b068fc378daa952ba7f163c4a11628f55a4df523b3ef856040518082815260200191505060405180910390a350505050565b80600073ffffffffffffffffffffffffffffffffffffffff1661189f8261136d565b73ffffffffffffffffffffffffffffffffffffffff16141515156118c257600080fd5b813373ffffffffffffffffffffffffffffffffffffffff166118e38261136d565b73ffffffffffffffffffffffffffffffffffffffff1614151561190557600080fd5b826000600760008381526020019081526020016000206008015411151561192b57600080fd5b600060076000868152602001908152602001600020600801819055507fe4e97fb1e5ca0426d6f22dde5a4750bcbf8317d2b96a51a3e73b6f2329dd4f3a846040518082815260200191505060405180910390a150505050565b600a6020528060005260406000206000915090505481565b6000600880549050905090565b6119b2816119f1565b6119bc8382611a47565b600060076000838152602001908152602001600020600801819055506119e28183611c2d565b6119ec8282611c83565b505050565b60006004600083815260200190815260200160002060006101000a81548173ffffffffffffffffffffffffffffffffffffffff021916908373ffffffffffffffffffffffffffffffffffffffff16021790555050565b6000806000600260008673ffffffffffffffffffffffffffffffffffffffff1673ffffffffffffffffffffffffffffffffffffffff16815260200190815260200160002080549050925060036000858152602001908152602001600020549150600260008673ffffffffffffffffffffffffffffffffffffffff1673ffffffffffffffffffffffffffffffffffffffff16815260200190815260200160002060018403815481101515611af657fe5b9060005260206000200154905080600260008773ffffffffffffffffffffffffffffffffffffffff1673ffffffffffffffffffffffffffffffffffffffff16815260200190815260200160002083815481101515611b5057fe5b9060005260206000200181905550816003600083815260200190815260200160002081905550600260008673ffffffffffffffffffffffffffffffffffffffff1673ffffffffffffffffffffffffffffffffffffffff16815260200190815260200160002060018403815481101515611bc557fe5b9060005260206000200160009055600260008673ffffffffffffffffffffffffffffffffffffffff1673ffffffffffffffffffffffffffffffffffffffff168152602001908152602001600020805480919060019003611c259190611dcd565b505050505050565b806001600084815260200190815260200160002060006101000a81548173ffffffffffffffffffffffffffffffffffffffff021916908373ffffffffffffffffffffffffffffffffffffffff1602179055505050565b600260008373ffffffffffffffffffffffffffffffffffffffff1673ffffffffffffffffffffffffffffffffffffffff1681526020019081526020016000208190806001815401808255809150509060018203906000526020600020016000909192909190915055506001600260008473ffffffffffffffffffffffffffffffffffffffff1673ffffffffffffffffffffffffffffffffffffffff168152602001908152602001600020805490500360036000838152602001908152602001600020819055505050565b828054600181600116156101000203166002900490600052602060002090601f016020900481019282601f10611d8e57805160ff1916838001178555611dbc565b82800160010185558215611dbc579182015b82811115611dbb578251825591602001919060010190611da0565b5b509050611dc99190611df9565b5090565b815481835581811115611df457818360005260206000209182019101611df39190611df9565b5b505050565b611e1b91905b80821115611e17576000816000905550600101611dff565b5090565b905600a165627a7a7230582075c61d67c232db074405c62782c661d67b98b283a465eff66d44930b39c789640029",
  "source": "pragma solidity ^0.4.18;\n\nimport \"./SimpleERC721.sol\";\n\n  \t/**\n\t * @title ERC721SpaceShip\n\t *\n\t * A script that manages selling of spaceships in the Universe\n\t*/\n\ncontract ERC721SpaceShip is SimpleERC721 {\n\n    // -----------------------------------------------------------------------------------------------------------\n    // ------------------------------------------------ Variables ------------------------------------------------\n    // -----------------------------------------------------------------------------------------------------------\n\n    string public name = \"SpaceShip Token\";\n    string public symbol = \"SST\";\n\n    struct SpaceShip {\n      //uint id;\n      bytes32 name;\n      string typeOfShip;\n      string ipfs;\n      address owner;\n      // address discoveredBy;\n      uint x;\n      uint y;\n      uint z;\n      //bool discovered;\n      bool forSale;\n      uint price; // 0 => not for sale\n      uint extractCapacity;\n      uint storageCapacity;\n      uint spaceshipPositionInList;\n    }\n    mapping (uint => SpaceShip) spaceships;\n    uint[] private spaceshipsList; // WARNING: private is still readable ?\n\n    // the one who deployed the smart contract\n    address public owner;\n\n    // The ether balance of all users of the smart contract\n    mapping(address => uint) public BalanceOfEther;\n\n\n\n    // -----------------------------------------------------------------------------------------------------------\n    // ------------------------------------------------- Constructor ---------------------------------------------\n    // -----------------------------------------------------------------------------------------------------------\n\n    constructor() public {\n        owner = msg.sender;\n    }\n\n\n    // -----------------------------------------------------------------------------------------------------------\n    // -------------------------------------------------- Events -------------------------------------------------\n    // -----------------------------------------------------------------------------------------------------------\n\n    event EmitUpForSale(uint256 _tokenId, uint256 _price);\n    event EmitBought(uint256 _tokenId, uint256 _at, address _by);\n    event EmitSaleOfferRemoved(uint256 _tokenId);\n\n\n    // -----------------------------------------------------------------------------------------------------------\n    // -------------------------------------------------- Modifiers ----------------------------------------------\n    // -----------------------------------------------------------------------------------------------------------\n\n    modifier onlyNonexistentToken(uint _tokenId) {\n        require(spaceships[_tokenId].owner == address(0));\n        _;\n    }\n\n    modifier isUpForSale(uint _tokenId) {\n        require(spaceships[_tokenId].price > 0);\n        _;\n    }\n\n    modifier isNotUpForSale(uint _tokenId) {\n        require(spaceships[_tokenId].price == 0);\n        _;\n    }\n\n    modifier onlyNotOwnerOfToken(uint _tokenId) {\n        require(ownerOf(_tokenId) != msg.sender);\n        _;\n    }\n\n    // -----------------------------------------------------------------------------------------------------------\n    // ------------------------------------------------ View functions -------------------------------------------\n    // -----------------------------------------------------------------------------------------------------------\n\n    function getSpaceShipCount() public constant returns(uint count) {\n      return spaceshipsList.length;\n    }\n    //constant au lieu de view\n    function getSpaceShip(uint _tokenId) public constant returns( bytes32 _name, string _typeOfShip, string _ipfs, uint _price, uint _extractCapacity, uint _storageCapacity){\n      return (spaceships[_tokenId].name, spaceships[_tokenId].typeOfShip, spaceships[_tokenId].ipfs, spaceships[_tokenId].price, spaceships[_tokenId].extractCapacity, spaceships[_tokenId].storageCapacity);\n    }\n\n    // -----------------------------------------------------------------------------------------------------------\n    // --------------------------------------------- Core Public functions ---------------------------------------\n    // -----------------------------------------------------------------------------------------------------------\n\n    /// @dev Initial acquisition of the token\n/*    function initialBuySpaceShip (uint _tokenId) payable public onlyNonexistentToken (_tokenId) {\n        require(msg.value == spaceships[_tokenId].price); // 0.1 eth = 100 finney\n        require(_tokenId < 10000); // Limit to 10 000 spaceships\n\n        BalanceOfEther[owner] += msg.value;\n\n        _setTokenOwner(_tokenId, msg.sender);\n        _addTokenToOwnersList(msg.sender, _tokenId);\n\n        emit EmitBought(_tokenId, msg.value, msg.sender);\n    }\n*/\n    /// @dev Create a SpaceShip\n    function createSpaceShip(uint _tokenId, bytes32 _name, string _typeOfShip, string _ipfs, uint _price, uint _extractCapacity, uint _storageCapacity) public\n    {\n        if(msg.sender != owner) revert();\n        // TODO: Check if already exist ?\n\n        spaceships[_tokenId].price = _price;\n        spaceships[_tokenId].typeOfShip = _typeOfShip;\n        spaceships[_tokenId].name = _name;\n        spaceships[_tokenId].ipfs = _ipfs;\n        spaceships[_tokenId].extractCapacity = _extractCapacity;\n        spaceships[_tokenId].storageCapacity = _storageCapacity;\n        //spaceships[_tokenId].owner =\n        //spaceships[_tokenId].\n        spaceships[_tokenId].spaceshipPositionInList = spaceshipsList.push(_tokenId) - 1;\n\n    }\n    /// @dev withdraw ether off the contract\n    function withdraw() public\n    {\n        uint amount = BalanceOfEther[msg.sender];\n        BalanceOfEther[msg.sender] = 0;\n        msg.sender.transfer(amount);\n    }\n\n    /// @dev putting token up for sale\n    /// @notice the _price is in Wei\n    function sellSpaceShip (uint _tokenId, uint _price) public onlyExtantToken (_tokenId) onlyOwnerOfToken (_tokenId) isNotUpForSale(_tokenId) {\n        require(_price > 0);\n\n        spaceships[_tokenId].price = _price;\n\n        emit EmitUpForSale(_tokenId, _price);\n    }\n\n    /// @dev buying token from someone\n    function buySpaceShip (uint _tokenId) payable public onlyExtantToken (_tokenId) isUpForSale (_tokenId) onlyNotOwnerOfToken (_tokenId) {\n        require(msg.value == spaceships[_tokenId].price);\n\n        spaceships[_tokenId].price = 0;\n        BalanceOfEther[ownerOf(_tokenId)] += msg.value;\n\n        _clearApprovalAndTransfer(ownerOf(_tokenId), msg.sender, _tokenId);\n\n        emit EmitBought(_tokenId, msg.value, msg.sender);\n    }\n\n    /// @dev removing a sale proposition\n    function removeSpaceShipFromSale (uint _tokenId) public onlyExtantToken (_tokenId) onlyOwnerOfToken (_tokenId) isUpForSale (_tokenId) {\n        spaceships[_tokenId].price = 0;\n        emit EmitSaleOfferRemoved(_tokenId);\n    }\n\n    // -----------------------------------------------------------------------------------------------------------\n    // ----------------------------------------------- Internal functions ----------------------------------------\n    // -----------------------------------------------------------------------------------------------------------\n\n    // calls all the internal functions above, to transfer a token from one user to another\n    // changed to nullify the selling offer when a token changes hands\n    function _clearApprovalAndTransfer(address _from, address _to, uint _tokenId) internal\n    {\n        _clearTokenApproval(_tokenId);\n        _removeTokenFromOwnersList(_from, _tokenId);\n\n        spaceships[_tokenId].price = 0;\n\n        _setTokenOwner(_tokenId, _to);\n        _addTokenToOwnersList(_to, _tokenId);\n    }\n}\n\n// test test\n",
  "sourcePath": "/home/azurrobotix/src/decentralized_game/contracts/ERC721SpaceShip.sol",
  "compiler": {
    "name": "solc",
    "version": "0.4.23+commit.124ca40d.Emscripten.clang"
  },
  "schemaVersion": "2.0.0",
  "updatedAt": "2018-04-23T08:17:09.221Z"
}