{
  "contractName": "ERC721Planet",
  "abi": [
    {
      "constant": false,
      "inputs": [
        {
          "name": "_to",
          "type": "address"
        },
        {
          "name": "_tokenId",
          "type": "uint256"
        }
      ],
      "name": "transferFrom",
      "outputs": [],
      "payable": false,
      "stateMutability": "nonpayable",
      "type": "function"
    },
    {
      "constant": true,
      "inputs": [],
      "name": "name",
      "outputs": [
        {
          "name": "",
          "type": "string"
        }
      ],
      "payable": false,
      "stateMutability": "view",
      "type": "function"
    },
    {
      "constant": false,
      "inputs": [
        {
          "name": "_to",
          "type": "address"
        },
        {
          "name": "_tokenId",
          "type": "uint256"
        }
      ],
      "name": "approve",
      "outputs": [],
      "payable": false,
      "stateMutability": "nonpayable",
      "type": "function"
    },
    {
      "constant": true,
      "inputs": [],
      "name": "totalSupply",
      "outputs": [
        {
          "name": "_totalSupply",
          "type": "uint256"
        }
      ],
      "payable": false,
      "stateMutability": "view",
      "type": "function"
    },
    {
      "constant": true,
      "inputs": [
        {
          "name": "_tokenId",
          "type": "uint256"
        }
      ],
      "name": "approvedFor",
      "outputs": [
        {
          "name": "_approved",
          "type": "address"
        }
      ],
      "payable": false,
      "stateMutability": "view",
      "type": "function"
    },
    {
      "constant": true,
      "inputs": [
        {
          "name": "_owner",
          "type": "address"
        }
      ],
      "name": "tokensOf",
      "outputs": [
        {
          "name": "",
          "type": "uint256[]"
        }
      ],
      "payable": false,
      "stateMutability": "view",
      "type": "function"
    },
    {
      "constant": true,
      "inputs": [
        {
          "name": "_tokenId",
          "type": "uint256"
        }
      ],
      "name": "ownerOf",
      "outputs": [
        {
          "name": "_owner",
          "type": "address"
        }
      ],
      "payable": false,
      "stateMutability": "view",
      "type": "function"
    },
    {
      "constant": true,
      "inputs": [
        {
          "name": "_owner",
          "type": "address"
        }
      ],
      "name": "balanceOf",
      "outputs": [
        {
          "name": "_balance",
          "type": "uint256"
        }
      ],
      "payable": false,
      "stateMutability": "view",
      "type": "function"
    },
    {
      "constant": true,
      "inputs": [
        {
          "name": "",
          "type": "uint256"
        }
      ],
      "name": "planetsList",
      "outputs": [
        {
          "name": "",
          "type": "uint256"
        }
      ],
      "payable": false,
      "stateMutability": "view",
      "type": "function"
    },
    {
      "constant": true,
      "inputs": [],
      "name": "owner",
      "outputs": [
        {
          "name": "",
          "type": "address"
        }
      ],
      "payable": false,
      "stateMutability": "view",
      "type": "function"
    },
    {
      "constant": true,
      "inputs": [],
      "name": "symbol",
      "outputs": [
        {
          "name": "",
          "type": "string"
        }
      ],
      "payable": false,
      "stateMutability": "view",
      "type": "function"
    },
    {
      "constant": false,
      "inputs": [
        {
          "name": "_tokenId",
          "type": "uint256"
        }
      ],
      "name": "removeApproval",
      "outputs": [],
      "payable": false,
      "stateMutability": "nonpayable",
      "type": "function"
    },
    {
      "constant": false,
      "inputs": [
        {
          "name": "_to",
          "type": "address"
        },
        {
          "name": "_tokenId",
          "type": "uint256"
        }
      ],
      "name": "transfer",
      "outputs": [],
      "payable": false,
      "stateMutability": "nonpayable",
      "type": "function"
    },
    {
      "constant": true,
      "inputs": [
        {
          "name": "",
          "type": "address"
        }
      ],
      "name": "BalanceOfEther",
      "outputs": [
        {
          "name": "",
          "type": "uint256"
        }
      ],
      "payable": false,
      "stateMutability": "view",
      "type": "function"
    },
    {
      "inputs": [],
      "payable": false,
      "stateMutability": "nonpayable",
      "type": "constructor"
    },
    {
      "anonymous": false,
      "inputs": [
        {
          "indexed": false,
          "name": "_tokenId",
          "type": "uint256"
        },
        {
          "indexed": false,
          "name": "_price",
          "type": "uint256"
        }
      ],
      "name": "EmitUpForSale",
      "type": "event"
    },
    {
      "anonymous": false,
      "inputs": [
        {
          "indexed": false,
          "name": "_tokenId",
          "type": "uint256"
        },
        {
          "indexed": false,
          "name": "_at",
          "type": "uint256"
        },
        {
          "indexed": false,
          "name": "_by",
          "type": "address"
        }
      ],
      "name": "EmitBought",
      "type": "event"
    },
    {
      "anonymous": false,
      "inputs": [
        {
          "indexed": false,
          "name": "_tokenId",
          "type": "uint256"
        }
      ],
      "name": "EmitSaleOfferRemoved",
      "type": "event"
    },
    {
      "anonymous": false,
      "inputs": [
        {
          "indexed": true,
          "name": "_from",
          "type": "address"
        },
        {
          "indexed": true,
          "name": "_to",
          "type": "address"
        },
        {
          "indexed": false,
          "name": "_tokenId",
          "type": "uint256"
        }
      ],
      "name": "Transfer",
      "type": "event"
    },
    {
      "anonymous": false,
      "inputs": [
        {
          "indexed": true,
          "name": "_owner",
          "type": "address"
        },
        {
          "indexed": true,
          "name": "_approved",
          "type": "address"
        },
        {
          "indexed": false,
          "name": "_tokenId",
          "type": "uint256"
        }
      ],
      "name": "Approval",
      "type": "event"
    },
    {
      "constant": true,
      "inputs": [],
      "name": "getPlanetCount",
      "outputs": [
        {
          "name": "count",
          "type": "uint256"
        }
      ],
      "payable": false,
      "stateMutability": "view",
      "type": "function"
    },
    {
      "constant": true,
      "inputs": [
        {
          "name": "_tokenId",
          "type": "uint256"
        }
      ],
      "name": "getPlanet",
      "outputs": [
        {
          "name": "_name",
          "type": "bytes32"
        },
        {
          "name": "_description",
          "type": "string"
        },
        {
          "name": "_ipfs",
          "type": "string"
        },
        {
          "name": "_price",
          "type": "uint256"
        },
        {
          "name": "_owner",
          "type": "address"
        }
      ],
      "payable": false,
      "stateMutability": "view",
      "type": "function"
    },
    {
      "constant": true,
      "inputs": [
        {
          "name": "_tokenId",
          "type": "uint256"
        }
      ],
      "name": "planetExist",
      "outputs": [
        {
          "name": "isIndeed",
          "type": "bool"
        }
      ],
      "payable": false,
      "stateMutability": "view",
      "type": "function"
    },
    {
      "constant": false,
      "inputs": [
        {
          "name": "_tokenId",
          "type": "uint256"
        },
        {
          "name": "_name",
          "type": "bytes32"
        },
        {
          "name": "_description",
          "type": "string"
        },
        {
          "name": "_ipfs",
          "type": "string"
        },
        {
          "name": "_price",
          "type": "uint256"
        }
      ],
      "name": "createPlanet",
      "outputs": [],
      "payable": false,
      "stateMutability": "nonpayable",
      "type": "function"
    },
    {
      "constant": false,
      "inputs": [
        {
          "name": "_tokenId",
          "type": "uint256"
        },
        {
          "name": "_name",
          "type": "bytes32"
        },
        {
          "name": "_description",
          "type": "string"
        },
        {
          "name": "_ipfs",
          "type": "string"
        },
        {
          "name": "_price",
          "type": "uint256"
        }
      ],
      "name": "updatePlanet",
      "outputs": [],
      "payable": false,
      "stateMutability": "nonpayable",
      "type": "function"
    },
    {
      "constant": false,
      "inputs": [
        {
          "name": "_tokenId",
          "type": "uint256"
        }
      ],
      "name": "deletePlanet",
      "outputs": [],
      "payable": false,
      "stateMutability": "nonpayable",
      "type": "function"
    },
    {
      "constant": false,
      "inputs": [],
      "name": "withdraw",
      "outputs": [],
      "payable": false,
      "stateMutability": "nonpayable",
      "type": "function"
    },
    {
      "constant": false,
      "inputs": [
        {
          "name": "_tokenId",
          "type": "uint256"
        },
        {
          "name": "_price",
          "type": "uint256"
        }
      ],
      "name": "sellPlanet",
      "outputs": [],
      "payable": false,
      "stateMutability": "nonpayable",
      "type": "function"
    },
    {
      "constant": false,
      "inputs": [
        {
          "name": "_tokenId",
          "type": "uint256"
        }
      ],
      "name": "buyPlanet",
      "outputs": [],
      "payable": true,
      "stateMutability": "payable",
      "type": "function"
    },
    {
      "constant": false,
      "inputs": [
        {
          "name": "_tokenId",
          "type": "uint256"
        }
      ],
      "name": "removePlanetFromSale",
      "outputs": [],
      "payable": false,
      "stateMutability": "nonpayable",
      "type": "function"
    }
  ],
  "bytecode": "0x60806040526040805190810160405280600c81526020017f506c616e657420546f6b656e00000000000000000000000000000000000000008152506005908051906020019062000051929190620000f5565b506040805190810160405280600481526020017f504c4e5400000000000000000000000000000000000000000000000000000000815250600690805190602001906200009f929190620000f5565b50348015620000ad57600080fd5b5033600960006101000a81548173ffffffffffffffffffffffffffffffffffffffff021916908373ffffffffffffffffffffffffffffffffffffffff160217905550620001a4565b828054600181600116156101000203166002900490600052602060002090601f016020900481019282601f106200013857805160ff191683800117855562000169565b8280016001018555821562000169579182015b82811115620001685782518255916020019190600101906200014b565b5b5090506200017891906200017c565b5090565b620001a191905b808211156200019d57600081600090555060010162000183565b5090565b90565b61242a80620001b46000396000f30060806040526004361061013e576000357c0100000000000000000000000000000000000000000000000000000000900463ffffffff16806301c6adc31461014357806306fdde0314610190578063095ea7b31461022057806318160ddd1461026d5780631c6261db14610298578063224180cf146102c55780632a6dd48f1461039657806334efcb8e146104035780633ccfd60b1461055e578063481ad526146105755780634a863b1f146105a25780635a3f2672146106735780636352211e1461070b57806370a08231146107785780637eb5665f146107cf5780638da5cb5b146108105780639437fada1461086757806395d89b411461089e5780639bbe3ada1461092e578063a9059cbb1461095b578063b9b18bd9146109a8578063db45a30f146109ff578063dd8b38d714610a1f578063f505810e14610a4a575b600080fd5b34801561014f57600080fd5b5061018e600480360381019080803573ffffffffffffffffffffffffffffffffffffffff16906020019092919080359060200190929190505050610a8f565b005b34801561019c57600080fd5b506101a5610c02565b6040518080602001828103825283818151815260200191508051906020019080838360005b838110156101e55780820151818401526020810190506101ca565b50505050905090810190601f1680156102125780820380516001836020036101000a031916815260200191505b509250505060405180910390f35b34801561022c57600080fd5b5061026b600480360381019080803573ffffffffffffffffffffffffffffffffffffffff16906020019092919080359060200190929190505050610ca0565b005b34801561027957600080fd5b50610282610e5c565b6040518082815260200191505060405180910390f35b3480156102a457600080fd5b506102c360048036038101908080359060200190929190505050610e65565b005b3480156102d157600080fd5b50610394600480360381019080803590602001909291908035600019169060200190929190803590602001908201803590602001908080601f0160208091040260200160405190810160405280939291908181526020018383808284378201915050505050509192919290803590602001908201803590602001908080601f01602080910402602001604051908101604052809392919081815260200183838082843782019150505050505091929192908035906020019092919050505061102c565b005b3480156103a257600080fd5b506103c160048036038101908080359060200190929190505050611133565b604051808273ffffffffffffffffffffffffffffffffffffffff1673ffffffffffffffffffffffffffffffffffffffff16815260200191505060405180910390f35b34801561040f57600080fd5b5061042e60048036038101908080359060200190929190505050611170565b60405180866000191660001916815260200180602001806020018581526020018473ffffffffffffffffffffffffffffffffffffffff1673ffffffffffffffffffffffffffffffffffffffff168152602001838103835287818151815260200191508051906020019080838360005b838110156104b857808201518184015260208101905061049d565b50505050905090810190601f1680156104e55780820380516001836020036101000a031916815260200191505b50838103825286818151815260200191508051906020019080838360005b8381101561051e578082015181840152602081019050610503565b50505050905090810190601f16801561054b5780820380516001836020036101000a031916815260200191505b5097505050505050505060405180910390f35b34801561056a57600080fd5b506105736113e0565b005b34801561058157600080fd5b506105a0600480360381019080803590602001909291905050506114b3565b005b3480156105ae57600080fd5b50610671600480360381019080803590602001909291908035600019169060200190929190803590602001908201803590602001908080601f0160208091040260200160405190810160405280939291908181526020018383808284378201915050505050509192919290803590602001908201803590602001908080601f0160208091040260200160405190810160405280939291908181526020018383808284378201915050505050509192919290803590602001909291905050506115ba565b005b34801561067f57600080fd5b506106b4600480360381019080803573ffffffffffffffffffffffffffffffffffffffff16906020019092919050505061171c565b6040518080602001828103825283818151815260200191508051906020019060200280838360005b838110156106f75780820151818401526020810190506106dc565b505050509050019250505060405180910390f35b34801561071757600080fd5b50610736600480360381019080803590602001909291905050506117b3565b604051808273ffffffffffffffffffffffffffffffffffffffff1673ffffffffffffffffffffffffffffffffffffffff16815260200191505060405180910390f35b34801561078457600080fd5b506107b9600480360381019080803573ffffffffffffffffffffffffffffffffffffffff1690602001909291905050506117f0565b6040518082815260200191505060405180910390f35b3480156107db57600080fd5b506107fa6004803603810190808035906020019092919050505061183c565b6040518082815260200191505060405180910390f35b34801561081c57600080fd5b5061082561185f565b604051808273ffffffffffffffffffffffffffffffffffffffff1673ffffffffffffffffffffffffffffffffffffffff16815260200191505060405180910390f35b34801561087357600080fd5b5061089c6004803603810190808035906020019092919080359060200190929190505050611885565b005b3480156108aa57600080fd5b506108b36119a3565b6040518080602001828103825283818151815260200191508051906020019080838360005b838110156108f35780820151818401526020810190506108d8565b50505050905090810190601f1680156109205780820380516001836020036101000a031916815260200191505b509250505060405180910390f35b34801561093a57600080fd5b5061095960048036038101908080359060200190929190505050611a41565b005b34801561096757600080fd5b506109a6600480360381019080803573ffffffffffffffffffffffffffffffffffffffff16906020019092919080359060200190929190505050611bac565b005b3480156109b457600080fd5b506109e9600480360381019080803573ffffffffffffffffffffffffffffffffffffffff169060200190929190505050611ce6565b6040518082815260200191505060405180910390f35b610a1d60048036038101908080359060200190929190505050611cfe565b005b348015610a2b57600080fd5b50610a34611ed2565b6040518082815260200191505060405180910390f35b348015610a5657600080fd5b50610a7560048036038101908080359060200190929190505050611edf565b604051808215151515815260200191505060405180910390f35b80600073ffffffffffffffffffffffffffffffffffffffff16610ab1826117b3565b73ffffffffffffffffffffffffffffffffffffffff1614151515610ad457600080fd5b3373ffffffffffffffffffffffffffffffffffffffff166004600084815260200190815260200160002060009054906101000a900473ffffffffffffffffffffffffffffffffffffffff1673ffffffffffffffffffffffffffffffffffffffff16141515610b4157600080fd5b600073ffffffffffffffffffffffffffffffffffffffff168373ffffffffffffffffffffffffffffffffffffffff1614151515610b7d57600080fd5b8273ffffffffffffffffffffffffffffffffffffffff16610b9d836117b3565b73ffffffffffffffffffffffffffffffffffffffff167fddf252ad1be2c89b69c2b068fc378daa952ba7f163c4a11628f55a4df523b3ef846040518082815260200191505060405180910390a3610bfd610bf6836117b3565b8484611f41565b505050565b60058054600181600116156101000203166002900480601f016020809104026020016040519081016040528092919081815260200182805460018160011615610100020316600290048015610c985780601f10610c6d57610100808354040283529160200191610c98565b820191906000526020600020905b815481529060010190602001808311610c7b57829003601f168201915b505050505081565b80600073ffffffffffffffffffffffffffffffffffffffff16610cc2826117b3565b73ffffffffffffffffffffffffffffffffffffffff1614151515610ce557600080fd5b813373ffffffffffffffffffffffffffffffffffffffff16610d06826117b3565b73ffffffffffffffffffffffffffffffffffffffff16141515610d2857600080fd5b8373ffffffffffffffffffffffffffffffffffffffff163373ffffffffffffffffffffffffffffffffffffffff1614151515610d6357600080fd5b600073ffffffffffffffffffffffffffffffffffffffff168473ffffffffffffffffffffffffffffffffffffffff1614151515610d9f57600080fd5b836004600085815260200190815260200160002060006101000a81548173ffffffffffffffffffffffffffffffffffffffff021916908373ffffffffffffffffffffffffffffffffffffffff1602179055508373ffffffffffffffffffffffffffffffffffffffff163373ffffffffffffffffffffffffffffffffffffffff167f8c5be1e5ebec7d5bd14f71427d1e84f3dd0314c0f7b2291e5b200ac8c7c3b925856040518082815260200191505060405180910390a350505050565b60008054905090565b600080600960009054906101000a900473ffffffffffffffffffffffffffffffffffffffff1673ffffffffffffffffffffffffffffffffffffffff163373ffffffffffffffffffffffffffffffffffffffff16141515610ec457600080fd5b610ecd83611edf565b156110275760076000848152602001908152602001600020600a015491506008600160088054905003815481101515610f0257fe5b9060005260206000200154905080600883815481101515610f1f57fe5b90600052602060002001819055508160076000838152602001908152602001600020600a01819055506008805480919060019003610f5d91906122e5565b5060076000848152602001908152602001600020600080820160009055600182016000610f8a9190612311565b600282016000610f9a9190612311565b6003820160006101000a81549073ffffffffffffffffffffffffffffffffffffffff02191690556004820160006101000a81549073ffffffffffffffffffffffffffffffffffffffff02191690556005820160009055600682016000905560078201600090556008820160006101000a81549060ff02191690556009820160009055600a82016000905550505b505050565b61103585611edf565b151561104057600080fd5b600960009054906101000a900473ffffffffffffffffffffffffffffffffffffffff1673ffffffffffffffffffffffffffffffffffffffff163373ffffffffffffffffffffffffffffffffffffffff1614151561109c57600080fd5b806007600087815260200190815260200160002060090181905550826007600087815260200190815260200160002060010190805190602001906110e1929190612359565b50836007600087815260200190815260200160002060000181600019169055508160076000878152602001908152602001600020600201908051906020019061112b929190612359565b505050505050565b60006004600083815260200190815260200160002060009054906101000a900473ffffffffffffffffffffffffffffffffffffffff169050919050565b600060608060008061118186611edf565b156113305760076000878152602001908152602001600020600001546007600088815260200190815260200160002060010160076000898152602001908152602001600020600201600760008a8152602001908152602001600020600901546111e98a6117b3565b838054600181600116156101000203166002900480601f01602080910402602001604051908101604052809291908181526020018280546001816001161561010002031660029004801561127e5780601f106112535761010080835404028352916020019161127e565b820191906000526020600020905b81548152906001019060200180831161126157829003601f168201915b50505050509350828054600181600116156101000203166002900480601f01602080910402602001604051908101604052809291908181526020018280546001816001161561010002031660029004801561131a5780601f106112ef5761010080835404028352916020019161131a565b820191906000526020600020905b8154815290600101906020018083116112fd57829003601f168201915b50505050509250945094509450945094506113d7565b6000807f646f6e745f65786973740000000000000000000000000000000000000000000091906040805190810160405280600a81526020017f646f6e745f65786973740000000000000000000000000000000000000000000081525091906040805190810160405280600a81526020017f646f6e745f6578697374000000000000000000000000000000000000000000008152509190819150809050945094509450945094505b91939590929450565b6000600a60003373ffffffffffffffffffffffffffffffffffffffff1673ffffffffffffffffffffffffffffffffffffffff1681526020019081526020016000205490506000600a60003373ffffffffffffffffffffffffffffffffffffffff1673ffffffffffffffffffffffffffffffffffffffff168152602001908152602001600020819055503373ffffffffffffffffffffffffffffffffffffffff166108fc829081150290604051600060405180830381858888f193505050501580156114af573d6000803e3d6000fd5b5050565b80600073ffffffffffffffffffffffffffffffffffffffff166114d5826117b3565b73ffffffffffffffffffffffffffffffffffffffff16141515156114f857600080fd5b813373ffffffffffffffffffffffffffffffffffffffff16611519826117b3565b73ffffffffffffffffffffffffffffffffffffffff1614151561153b57600080fd5b826000600760008381526020019081526020016000206009015411151561156157600080fd5b600060076000868152602001908152602001600020600901819055507fe4e97fb1e5ca0426d6f22dde5a4750bcbf8317d2b96a51a3e73b6f2329dd4f3a846040518082815260200191505060405180910390a150505050565b600960009054906101000a900473ffffffffffffffffffffffffffffffffffffffff1673ffffffffffffffffffffffffffffffffffffffff163373ffffffffffffffffffffffffffffffffffffffff1614151561161657600080fd5b61161f85611edf565b1561162957600080fd5b6116338533611f89565b61163d3386611fdf565b80600760008781526020019081526020016000206009018190555082600760008781526020019081526020016000206001019080519060200190611682929190612359565b5083600760008781526020019081526020016000206000018160001916905550816007600087815260200190815260200160002060020190805190602001906116cc929190612359565b506001600886908060018154018082558091505090600182039060005260206000200160009091929091909150550360076000878152602001908152602001600020600a01819055505050505050565b6060600260008373ffffffffffffffffffffffffffffffffffffffff1673ffffffffffffffffffffffffffffffffffffffff1681526020019081526020016000208054806020026020016040519081016040528092919081815260200182805480156117a757602002820191906000526020600020905b815481526020019060010190808311611793575b50505050509050919050565b60006001600083815260200190815260200160002060009054906101000a900473ffffffffffffffffffffffffffffffffffffffff169050919050565b6000600260008373ffffffffffffffffffffffffffffffffffffffff1673ffffffffffffffffffffffffffffffffffffffff168152602001908152602001600020805490509050919050565b60088181548110151561184b57fe5b906000526020600020016000915090505481565b600960009054906101000a900473ffffffffffffffffffffffffffffffffffffffff1681565b81600073ffffffffffffffffffffffffffffffffffffffff166118a7826117b3565b73ffffffffffffffffffffffffffffffffffffffff16141515156118ca57600080fd5b823373ffffffffffffffffffffffffffffffffffffffff166118eb826117b3565b73ffffffffffffffffffffffffffffffffffffffff1614151561190d57600080fd5b836000600760008381526020019081526020016000206009015414151561193357600080fd5b60008411151561194257600080fd5b8360076000878152602001908152602001600020600901819055507f48dfbd5e8c7a96b0c2dca11f83effeae25a0702dbff54c23fa88c97e8567b5428585604051808381526020018281526020019250505060405180910390a15050505050565b60068054600181600116156101000203166002900480601f016020809104026020016040519081016040528092919081815260200182805460018160011615610100020316600290048015611a395780601f10611a0e57610100808354040283529160200191611a39565b820191906000526020600020905b815481529060010190602001808311611a1c57829003601f168201915b505050505081565b80600073ffffffffffffffffffffffffffffffffffffffff16611a63826117b3565b73ffffffffffffffffffffffffffffffffffffffff1614151515611a8657600080fd5b813373ffffffffffffffffffffffffffffffffffffffff16611aa7826117b3565b73ffffffffffffffffffffffffffffffffffffffff16141515611ac957600080fd5b600073ffffffffffffffffffffffffffffffffffffffff166004600085815260200190815260200160002060009054906101000a900473ffffffffffffffffffffffffffffffffffffffff1673ffffffffffffffffffffffffffffffffffffffff1614151515611b3857600080fd5b611b41836120a9565b600073ffffffffffffffffffffffffffffffffffffffff163373ffffffffffffffffffffffffffffffffffffffff167f8c5be1e5ebec7d5bd14f71427d1e84f3dd0314c0f7b2291e5b200ac8c7c3b925856040518082815260200191505060405180910390a3505050565b80600073ffffffffffffffffffffffffffffffffffffffff16611bce826117b3565b73ffffffffffffffffffffffffffffffffffffffff1614151515611bf157600080fd5b813373ffffffffffffffffffffffffffffffffffffffff16611c12826117b3565b73ffffffffffffffffffffffffffffffffffffffff16141515611c3457600080fd5b600073ffffffffffffffffffffffffffffffffffffffff168473ffffffffffffffffffffffffffffffffffffffff1614151515611c7057600080fd5b611c7b338585611f41565b8373ffffffffffffffffffffffffffffffffffffffff163373ffffffffffffffffffffffffffffffffffffffff167fddf252ad1be2c89b69c2b068fc378daa952ba7f163c4a11628f55a4df523b3ef856040518082815260200191505060405180910390a350505050565b600a6020528060005260406000206000915090505481565b80600073ffffffffffffffffffffffffffffffffffffffff16611d20826117b3565b73ffffffffffffffffffffffffffffffffffffffff1614151515611d4357600080fd5b8160006007600083815260200190815260200160002060090154111515611d6957600080fd5b823373ffffffffffffffffffffffffffffffffffffffff16611d8a826117b3565b73ffffffffffffffffffffffffffffffffffffffff1614151515611dad57600080fd5b6007600085815260200190815260200160002060090154341115611ec7576000600760008681526020019081526020016000206009018190555034600a6000611df5876117b3565b73ffffffffffffffffffffffffffffffffffffffff1673ffffffffffffffffffffffffffffffffffffffff16815260200190815260200160002060008282540192505081905550611e4f611e48856117b3565b3386611f41565b7f80a902903a432d55fa4aacba4be2a79821bf5a27a98c69f914cfd93b1bd40aaf843433604051808481526020018381526020018273ffffffffffffffffffffffffffffffffffffffff1673ffffffffffffffffffffffffffffffffffffffff168152602001935050505060405180910390a1611ecc565b600080fd5b50505050565b6000600880549050905090565b6000806008805490501415611ef75760009050611f3c565b81600860076000858152602001908152602001600020600a0154815481101515611f1d57fe5b90600052602060002001541415611f375760019050611f3c565b600090505b919050565b611f4a816120a9565b611f5483826120ff565b60006007600083815260200190815260200160002060090181905550611f7a8183611f89565b611f848282611fdf565b505050565b806001600084815260200190815260200160002060006101000a81548173ffffffffffffffffffffffffffffffffffffffff021916908373ffffffffffffffffffffffffffffffffffffffff1602179055505050565b600260008373ffffffffffffffffffffffffffffffffffffffff1673ffffffffffffffffffffffffffffffffffffffff1681526020019081526020016000208190806001815401808255809150509060018203906000526020600020016000909192909190915055506001600260008473ffffffffffffffffffffffffffffffffffffffff1673ffffffffffffffffffffffffffffffffffffffff168152602001908152602001600020805490500360036000838152602001908152602001600020819055505050565b60006004600083815260200190815260200160002060006101000a81548173ffffffffffffffffffffffffffffffffffffffff021916908373ffffffffffffffffffffffffffffffffffffffff16021790555050565b6000806000600260008673ffffffffffffffffffffffffffffffffffffffff1673ffffffffffffffffffffffffffffffffffffffff16815260200190815260200160002080549050925060036000858152602001908152602001600020549150600260008673ffffffffffffffffffffffffffffffffffffffff1673ffffffffffffffffffffffffffffffffffffffff168152602001908152602001600020600184038154811015156121ae57fe5b9060005260206000200154905080600260008773ffffffffffffffffffffffffffffffffffffffff1673ffffffffffffffffffffffffffffffffffffffff1681526020019081526020016000208381548110151561220857fe5b9060005260206000200181905550816003600083815260200190815260200160002081905550600260008673ffffffffffffffffffffffffffffffffffffffff1673ffffffffffffffffffffffffffffffffffffffff1681526020019081526020016000206001840381548110151561227d57fe5b9060005260206000200160009055600260008673ffffffffffffffffffffffffffffffffffffffff1673ffffffffffffffffffffffffffffffffffffffff1681526020019081526020016000208054809190600190036122dd91906122e5565b505050505050565b81548183558181111561230c5781836000526020600020918201910161230b91906123d9565b5b505050565b50805460018160011615610100020316600290046000825580601f106123375750612356565b601f01602090049060005260206000209081019061235591906123d9565b5b50565b828054600181600116156101000203166002900490600052602060002090601f016020900481019282601f1061239a57805160ff19168380011785556123c8565b828001600101855582156123c8579182015b828111156123c75782518255916020019190600101906123ac565b5b5090506123d591906123d9565b5090565b6123fb91905b808211156123f75760008160009055506001016123df565b5090565b905600a165627a7a723058205e1a99d3f27ee03f31591d769f33106675e828a8c12a65572cd83fbc1bad54540029",
  "source": "pragma solidity ^0.4.18;\n\nimport \"./SimpleERC721.sol\";\n\n  \t/**\n\t * @title ERC721Planet\n\t *\n\t * A script that manages selling of planets in the Universe\n\t*/\n\ncontract ERC721Planet is SimpleERC721 {\n\n    // -----------------------------------------------------------------------------------------------------------\n    // ------------------------------------------------ Variables ------------------------------------------------\n    // -----------------------------------------------------------------------------------------------------------\n\n    string public name = \"Planet Token\";\n    string public symbol = \"PLNT\";\n\n    struct Planet {\n      //uint id;\n      bytes32 name;\n      string description;\n      string ipfs;\n      address owner;\n      address discoveredBy;\n      uint x;\n      uint y;\n      uint z;\n      bool discovered;\n      //bool forSale;\n      uint price; // 0 => not for sale\n      uint planetPositionInList;\n    }\n    mapping (uint => Planet) planets;\n    uint[] public planetsList; // WARNING: private is still readable ?\n\n    // the one who deployed the smart contract\n    address public owner;\n\n    // The ether balance of all users of the smart contract\n    mapping(address => uint) public BalanceOfEther;\n\n\n\n    // -----------------------------------------------------------------------------------------------------------\n    // ------------------------------------------------- Constructor ---------------------------------------------\n    // -----------------------------------------------------------------------------------------------------------\n\n    constructor() public {\n        owner = msg.sender;\n    }\n\n    // -----------------------------------------------------------------------------------------------------------\n    // -------------------------------------------------- Events -------------------------------------------------\n    // -----------------------------------------------------------------------------------------------------------\n\n    event EmitUpForSale(uint256 _tokenId, uint256 _price);\n    event EmitBought(uint256 _tokenId, uint256 _at, address _by);\n    event EmitSaleOfferRemoved(uint256 _tokenId);\n\n\n    // -----------------------------------------------------------------------------------------------------------\n    // -------------------------------------------------- Modifiers ----------------------------------------------\n    // -----------------------------------------------------------------------------------------------------------\n\n    modifier onlyNonexistentToken(uint _tokenId) {\n        require(planets[_tokenId].owner == address(0));\n        _;\n    }\n\n    modifier isUpForSale(uint _tokenId) {\n        require(planets[_tokenId].price > 0);\n        _;\n    }\n\n    modifier isNotUpForSale(uint _tokenId) {\n        require(planets[_tokenId].price == 0);\n        _;\n    }\n\n    modifier onlyNotOwnerOfToken(uint _tokenId) {\n        require(ownerOf(_tokenId) != msg.sender);\n        _;\n    }\n\n    // -----------------------------------------------------------------------------------------------------------\n    // ------------------------------------------------ View functions -------------------------------------------\n    // -----------------------------------------------------------------------------------------------------------\n\n    function getPlanetCount() public constant returns(uint count) {\n      return planetsList.length;\n    }\n\n\n    function getPlanet(uint _tokenId) public constant returns( bytes32 _name, string _description, string _ipfs, uint _price, address _owner){\n      if(planetExist(_tokenId)){\n        return (planets[_tokenId].name, planets[_tokenId].description, planets[_tokenId].ipfs, planets[_tokenId].price, ownerOf(_tokenId));\n      }else{\n        return (\"dont_exist\", \"dont_exist\", \"dont_exist\", 0, 0);\n      }\n    }\n\n    function planetExist(uint _tokenId) public constant returns(bool isIndeed) {\n      if(planetsList.length == 0) return false;\n      if(planetsList[planets[_tokenId].planetPositionInList] == _tokenId){\n        return true;\n      }else{\n        return false;\n      }\n    }\n    // -----------------------------------------------------------------------------------------------------------\n    // --------------------------------------------- Core Public functions ---------------------------------------\n    // -----------------------------------------------------------------------------------------------------------\n\n    /// @dev Initial acquisition of the token\n/*    function initialBuyPlanet (uint _tokenId) payable public onlyNonexistentToken (_tokenId) {\n        require(msg.value == planets[_tokenId].price); // 0.1 eth = 100 finney\n        require(_tokenId < 10000); // Limit to 10 000 Planets\n\n        BalanceOfEther[owner] += msg.value;\n\n        _setTokenOwner(_tokenId, msg.sender);\n        _addTokenToOwnersList(msg.sender, _tokenId);\n\n        emit EmitBought(_tokenId, msg.value, msg.sender);\n    }\n*/\n    /// @dev Create a Planet\n    function createPlanet(uint _tokenId, bytes32 _name, string _description, string _ipfs, uint _price) public\n    {\n        if(msg.sender != owner) revert(); //TODO: fix it !\n        if(planetExist(_tokenId)) revert(); //TODO: fix it !\n        // Set the ownership to creator\n        _setTokenOwner(_tokenId, msg.sender);\n        _addTokenToOwnersList(msg.sender, _tokenId);\n        planets[_tokenId].price = _price;\n        planets[_tokenId].description = _description;\n        planets[_tokenId].name = _name;\n        planets[_tokenId].ipfs = _ipfs;\n        //planets[_tokenId].owner =\n        //planets[_tokenId].\n        planets[_tokenId].planetPositionInList = planetsList.push(_tokenId) - 1;\n\n    }\n\n    /// @dev Update a Planet\n    function updatePlanet(uint _tokenId, bytes32 _name, string _description, string _ipfs, uint _price) public\n    {\n        if(!planetExist(_tokenId)) revert();\n        //TODO: Check who can update it other than owner of the contract ?\n        if(msg.sender != owner) revert();\n        planets[_tokenId].price = _price;\n        planets[_tokenId].description = _description;\n        planets[_tokenId].name = _name;\n        planets[_tokenId].ipfs = _ipfs;\n    }\n    /// @dev Delete a Planet\n    function deletePlanet(uint _tokenId) public\n    {\n        if(msg.sender != owner) revert(); // fix it\n        if(planetExist(_tokenId)){\n          uint rowToDelete = planets[_tokenId].planetPositionInList;\n          uint keyToMove   = planetsList[planetsList.length - 1];\n          planetsList[rowToDelete] = keyToMove;\n          planets[keyToMove].planetPositionInList = rowToDelete;\n          planetsList.length--;\n          //planets[_tokenId].planetPositionInList = planetsList.push(_tokenId) - 1;\n          delete planets[_tokenId];\n        }\n    }\n\n    /// @dev withdraw ether off the contract\n    function withdraw() public\n    {\n        uint amount = BalanceOfEther[msg.sender];\n        BalanceOfEther[msg.sender] = 0;\n        msg.sender.transfer(amount);\n    }\n\n    /// @dev putting token up for sale\n    /// @notice the _price is in Wei\n    function sellPlanet (uint _tokenId, uint _price) public onlyExtantToken (_tokenId) onlyOwnerOfToken (_tokenId) isNotUpForSale(_tokenId) {\n        require(_price > 0);\n\n        planets[_tokenId].price = _price;\n\n        emit EmitUpForSale(_tokenId, _price);\n    }\n\n    /// @dev buying token from someone\n    function buyPlanet (uint _tokenId) payable public onlyExtantToken (_tokenId) isUpForSale (_tokenId) onlyNotOwnerOfToken (_tokenId) {\n         if(msg.value > planets[_tokenId].price) // fix it szabo to Wei : * 1000000000000\n         {\n                   planets[_tokenId].price = 0;\n                   BalanceOfEther[ownerOf(_tokenId)] += msg.value;\n                   _clearApprovalAndTransfer(ownerOf(_tokenId), msg.sender, _tokenId);\n                   emit EmitBought(_tokenId, msg.value, msg.sender);\n         }else{\n           revert();\n         }\n\n    }\n\n    /// @dev removing a sale proposition\n    function removePlanetFromSale (uint _tokenId) public onlyExtantToken (_tokenId) onlyOwnerOfToken (_tokenId) isUpForSale (_tokenId) {\n        planets[_tokenId].price = 0;\n        emit EmitSaleOfferRemoved(_tokenId);\n    }\n\n    // -----------------------------------------------------------------------------------------------------------\n    // ----------------------------------------------- Internal functions ----------------------------------------\n    // -----------------------------------------------------------------------------------------------------------\n\n    // calls all the internal functions above, to transfer a token from one user to another\n    // changed to nullify the selling offer when a token changes hands\n    function _clearApprovalAndTransfer(address _from, address _to, uint _tokenId) internal\n    {\n        _clearTokenApproval(_tokenId);\n        _removeTokenFromOwnersList(_from, _tokenId);\n\n        planets[_tokenId].price = 0;\n\n        _setTokenOwner(_tokenId, _to);\n        _addTokenToOwnersList(_to, _tokenId);\n    }\n}\n",
  "sourcePath": "/home/azurrobotix/src/decentralized_game/contracts/ERC721Planet.sol",
  "compiler": {
    "name": "solc",
    "version": "0.4.23+commit.124ca40d.Emscripten.clang"
  },
  "schemaVersion": "2.0.0",
  "updatedAt": "2018-04-23T08:17:09.230Z"
}