{
  "contractName": "SimpleERC721",
  "abi": [
    {
      "anonymous": false,
      "inputs": [
        {
          "indexed": true,
          "name": "_from",
          "type": "address"
        },
        {
          "indexed": true,
          "name": "_to",
          "type": "address"
        },
        {
          "indexed": false,
          "name": "_tokenId",
          "type": "uint256"
        }
      ],
      "name": "Transfer",
      "type": "event"
    },
    {
      "anonymous": false,
      "inputs": [
        {
          "indexed": true,
          "name": "_owner",
          "type": "address"
        },
        {
          "indexed": true,
          "name": "_approved",
          "type": "address"
        },
        {
          "indexed": false,
          "name": "_tokenId",
          "type": "uint256"
        }
      ],
      "name": "Approval",
      "type": "event"
    },
    {
      "constant": true,
      "inputs": [
        {
          "name": "_tokenId",
          "type": "uint256"
        }
      ],
      "name": "ownerOf",
      "outputs": [
        {
          "name": "_owner",
          "type": "address"
        }
      ],
      "payable": false,
      "stateMutability": "view",
      "type": "function"
    },
    {
      "constant": true,
      "inputs": [],
      "name": "totalSupply",
      "outputs": [
        {
          "name": "_totalSupply",
          "type": "uint256"
        }
      ],
      "payable": false,
      "stateMutability": "view",
      "type": "function"
    },
    {
      "constant": true,
      "inputs": [
        {
          "name": "_owner",
          "type": "address"
        }
      ],
      "name": "balanceOf",
      "outputs": [
        {
          "name": "_balance",
          "type": "uint256"
        }
      ],
      "payable": false,
      "stateMutability": "view",
      "type": "function"
    },
    {
      "constant": true,
      "inputs": [
        {
          "name": "_tokenId",
          "type": "uint256"
        }
      ],
      "name": "approvedFor",
      "outputs": [
        {
          "name": "_approved",
          "type": "address"
        }
      ],
      "payable": false,
      "stateMutability": "view",
      "type": "function"
    },
    {
      "constant": true,
      "inputs": [
        {
          "name": "_owner",
          "type": "address"
        }
      ],
      "name": "tokensOf",
      "outputs": [
        {
          "name": "",
          "type": "uint256[]"
        }
      ],
      "payable": false,
      "stateMutability": "view",
      "type": "function"
    },
    {
      "constant": false,
      "inputs": [
        {
          "name": "_to",
          "type": "address"
        },
        {
          "name": "_tokenId",
          "type": "uint256"
        }
      ],
      "name": "transfer",
      "outputs": [],
      "payable": false,
      "stateMutability": "nonpayable",
      "type": "function"
    },
    {
      "constant": false,
      "inputs": [
        {
          "name": "_to",
          "type": "address"
        },
        {
          "name": "_tokenId",
          "type": "uint256"
        }
      ],
      "name": "approve",
      "outputs": [],
      "payable": false,
      "stateMutability": "nonpayable",
      "type": "function"
    },
    {
      "constant": false,
      "inputs": [
        {
          "name": "_tokenId",
          "type": "uint256"
        }
      ],
      "name": "removeApproval",
      "outputs": [],
      "payable": false,
      "stateMutability": "nonpayable",
      "type": "function"
    },
    {
      "constant": false,
      "inputs": [
        {
          "name": "_to",
          "type": "address"
        },
        {
          "name": "_tokenId",
          "type": "uint256"
        }
      ],
      "name": "transferFrom",
      "outputs": [],
      "payable": false,
      "stateMutability": "nonpayable",
      "type": "function"
    }
  ],
  "bytecode": "0x608060405234801561001057600080fd5b50610ee5806100206000396000f300608060405260043610610099576000357c0100000000000000000000000000000000000000000000000000000000900463ffffffff16806301c6adc31461009e578063095ea7b3146100eb57806318160ddd146101385780632a6dd48f146101635780635a3f2672146101d05780636352211e1461026857806370a08231146102d55780639bbe3ada1461032c578063a9059cbb14610359575b600080fd5b3480156100aa57600080fd5b506100e9600480360381019080803573ffffffffffffffffffffffffffffffffffffffff169060200190929190803590602001909291905050506103a6565b005b3480156100f757600080fd5b50610136600480360381019080803573ffffffffffffffffffffffffffffffffffffffff16906020019092919080359060200190929190505050610519565b005b34801561014457600080fd5b5061014d6106d5565b6040518082815260200191505060405180910390f35b34801561016f57600080fd5b5061018e600480360381019080803590602001909291905050506106de565b604051808273ffffffffffffffffffffffffffffffffffffffff1673ffffffffffffffffffffffffffffffffffffffff16815260200191505060405180910390f35b3480156101dc57600080fd5b50610211600480360381019080803573ffffffffffffffffffffffffffffffffffffffff16906020019092919050505061071b565b6040518080602001828103825283818151815260200191508051906020019060200280838360005b83811015610254578082015181840152602081019050610239565b505050509050019250505060405180910390f35b34801561027457600080fd5b50610293600480360381019080803590602001909291905050506107b2565b604051808273ffffffffffffffffffffffffffffffffffffffff1673ffffffffffffffffffffffffffffffffffffffff16815260200191505060405180910390f35b3480156102e157600080fd5b50610316600480360381019080803573ffffffffffffffffffffffffffffffffffffffff1690602001909291905050506107ef565b6040518082815260200191505060405180910390f35b34801561033857600080fd5b506103576004803603810190808035906020019092919050505061083b565b005b34801561036557600080fd5b506103a4600480360381019080803573ffffffffffffffffffffffffffffffffffffffff169060200190929190803590602001909291905050506109a6565b005b80600073ffffffffffffffffffffffffffffffffffffffff166103c8826107b2565b73ffffffffffffffffffffffffffffffffffffffff16141515156103eb57600080fd5b3373ffffffffffffffffffffffffffffffffffffffff166004600084815260200190815260200160002060009054906101000a900473ffffffffffffffffffffffffffffffffffffffff1673ffffffffffffffffffffffffffffffffffffffff1614151561045857600080fd5b600073ffffffffffffffffffffffffffffffffffffffff168373ffffffffffffffffffffffffffffffffffffffff161415151561049457600080fd5b8273ffffffffffffffffffffffffffffffffffffffff166104b4836107b2565b73ffffffffffffffffffffffffffffffffffffffff167fddf252ad1be2c89b69c2b068fc378daa952ba7f163c4a11628f55a4df523b3ef846040518082815260200191505060405180910390a361051461050d836107b2565b8484610ae0565b505050565b80600073ffffffffffffffffffffffffffffffffffffffff1661053b826107b2565b73ffffffffffffffffffffffffffffffffffffffff161415151561055e57600080fd5b813373ffffffffffffffffffffffffffffffffffffffff1661057f826107b2565b73ffffffffffffffffffffffffffffffffffffffff161415156105a157600080fd5b8373ffffffffffffffffffffffffffffffffffffffff163373ffffffffffffffffffffffffffffffffffffffff16141515156105dc57600080fd5b600073ffffffffffffffffffffffffffffffffffffffff168473ffffffffffffffffffffffffffffffffffffffff161415151561061857600080fd5b836004600085815260200190815260200160002060006101000a81548173ffffffffffffffffffffffffffffffffffffffff021916908373ffffffffffffffffffffffffffffffffffffffff1602179055508373ffffffffffffffffffffffffffffffffffffffff163373ffffffffffffffffffffffffffffffffffffffff167f8c5be1e5ebec7d5bd14f71427d1e84f3dd0314c0f7b2291e5b200ac8c7c3b925856040518082815260200191505060405180910390a350505050565b60008054905090565b60006004600083815260200190815260200160002060009054906101000a900473ffffffffffffffffffffffffffffffffffffffff169050919050565b6060600260008373ffffffffffffffffffffffffffffffffffffffff1673ffffffffffffffffffffffffffffffffffffffff1681526020019081526020016000208054806020026020016040519081016040528092919081815260200182805480156107a657602002820191906000526020600020905b815481526020019060010190808311610792575b50505050509050919050565b60006001600083815260200190815260200160002060009054906101000a900473ffffffffffffffffffffffffffffffffffffffff169050919050565b6000600260008373ffffffffffffffffffffffffffffffffffffffff1673ffffffffffffffffffffffffffffffffffffffff168152602001908152602001600020805490509050919050565b80600073ffffffffffffffffffffffffffffffffffffffff1661085d826107b2565b73ffffffffffffffffffffffffffffffffffffffff161415151561088057600080fd5b813373ffffffffffffffffffffffffffffffffffffffff166108a1826107b2565b73ffffffffffffffffffffffffffffffffffffffff161415156108c357600080fd5b600073ffffffffffffffffffffffffffffffffffffffff166004600085815260200190815260200160002060009054906101000a900473ffffffffffffffffffffffffffffffffffffffff1673ffffffffffffffffffffffffffffffffffffffff161415151561093257600080fd5b61093b83610b0c565b600073ffffffffffffffffffffffffffffffffffffffff163373ffffffffffffffffffffffffffffffffffffffff167f8c5be1e5ebec7d5bd14f71427d1e84f3dd0314c0f7b2291e5b200ac8c7c3b925856040518082815260200191505060405180910390a3505050565b80600073ffffffffffffffffffffffffffffffffffffffff166109c8826107b2565b73ffffffffffffffffffffffffffffffffffffffff16141515156109eb57600080fd5b813373ffffffffffffffffffffffffffffffffffffffff16610a0c826107b2565b73ffffffffffffffffffffffffffffffffffffffff16141515610a2e57600080fd5b600073ffffffffffffffffffffffffffffffffffffffff168473ffffffffffffffffffffffffffffffffffffffff1614151515610a6a57600080fd5b610a75338585610ae0565b8373ffffffffffffffffffffffffffffffffffffffff163373ffffffffffffffffffffffffffffffffffffffff167fddf252ad1be2c89b69c2b068fc378daa952ba7f163c4a11628f55a4df523b3ef856040518082815260200191505060405180910390a350505050565b610ae981610b0c565b610af38382610b62565b610afd8183610d48565b610b078282610d9e565b505050565b60006004600083815260200190815260200160002060006101000a81548173ffffffffffffffffffffffffffffffffffffffff021916908373ffffffffffffffffffffffffffffffffffffffff16021790555050565b6000806000600260008673ffffffffffffffffffffffffffffffffffffffff1673ffffffffffffffffffffffffffffffffffffffff16815260200190815260200160002080549050925060036000858152602001908152602001600020549150600260008673ffffffffffffffffffffffffffffffffffffffff1673ffffffffffffffffffffffffffffffffffffffff16815260200190815260200160002060018403815481101515610c1157fe5b9060005260206000200154905080600260008773ffffffffffffffffffffffffffffffffffffffff1673ffffffffffffffffffffffffffffffffffffffff16815260200190815260200160002083815481101515610c6b57fe5b9060005260206000200181905550816003600083815260200190815260200160002081905550600260008673ffffffffffffffffffffffffffffffffffffffff1673ffffffffffffffffffffffffffffffffffffffff16815260200190815260200160002060018403815481101515610ce057fe5b9060005260206000200160009055600260008673ffffffffffffffffffffffffffffffffffffffff1673ffffffffffffffffffffffffffffffffffffffff168152602001908152602001600020805480919060019003610d409190610e68565b505050505050565b806001600084815260200190815260200160002060006101000a81548173ffffffffffffffffffffffffffffffffffffffff021916908373ffffffffffffffffffffffffffffffffffffffff1602179055505050565b600260008373ffffffffffffffffffffffffffffffffffffffff1673ffffffffffffffffffffffffffffffffffffffff1681526020019081526020016000208190806001815401808255809150509060018203906000526020600020016000909192909190915055506001600260008473ffffffffffffffffffffffffffffffffffffffff1673ffffffffffffffffffffffffffffffffffffffff168152602001908152602001600020805490500360036000838152602001908152602001600020819055505050565b815481835581811115610e8f57818360005260206000209182019101610e8e9190610e94565b5b505050565b610eb691905b80821115610eb2576000816000905550600101610e9a565b5090565b905600a165627a7a72305820a9845970b2599a0b4966c5bbb62c1ea209e7161b3793cf55c6c5e73cd2f1c0b00029",
  "source": "pragma solidity ^0.4.18;\r\n\r\n  \t/**\r\n\t * @title SimpleERC721\r\n\t *\r\n\t * A simple implementation of the ERC721 standard\r\n\t * @dev See https://github.com/ethereum/eips/issues/721\r\n\t*/\r\n\r\ncontract SimpleERC721 {\r\n\r\n    // -----------------------------------------------------------------------------------------------------------\r\n    // ------------------------------------------------ Variables ------------------------------------------------\r\n    // -----------------------------------------------------------------------------------------------------------\r\n\r\n    uint256 public totalSupply;\r\n\r\n    // Basic references\r\n    mapping(uint => address) internal tokenIdToOwner;\r\n    mapping(address => uint[]) internal listOfOwnerTokens;\r\n    mapping(uint => uint) internal tokenIndexInOwnerArray;\r\n    // Approval mapping\r\n    mapping(uint => address) internal approvedAddressToTransferTokenId;\r\n\r\n    // -----------------------------------------------------------------------------------------------------------\r\n    // -------------------------------------------------- Events -------------------------------------------------\r\n    // -----------------------------------------------------------------------------------------------------------\r\n\r\n    event Transfer(address indexed _from, address indexed _to, uint256 _tokenId);\r\n    event Approval(address indexed _owner, address indexed _approved, uint256 _tokenId);\r\n\r\n    // -----------------------------------------------------------------------------------------------------------\r\n    // -------------------------------------------------- Modifiers ----------------------------------------------\r\n    // -----------------------------------------------------------------------------------------------------------\r\n\r\n    modifier onlyExtantToken(uint _tokenId) {\r\n        require(ownerOf(_tokenId) != address(0));\r\n        _;\r\n    }\r\n\r\n    modifier onlyOwnerOfToken(uint _tokenId) {\r\n        require(ownerOf(_tokenId) == msg.sender);\r\n        _;\r\n    }\r\n\r\n    // -----------------------------------------------------------------------------------------------------------\r\n    // ------------------------------------------------ View functions -------------------------------------------\r\n    // -----------------------------------------------------------------------------------------------------------\r\n\r\n    /// @dev Returns the address currently marked as the owner of _tokenID.\r\n    function ownerOf(uint256 _tokenId) public view returns (address _owner)\r\n    {\r\n        return tokenIdToOwner[_tokenId];\r\n    }\r\n\r\n    /// @dev Get the total supply of token held by this contract.\r\n    function totalSupply() public view returns (uint256 _totalSupply)\r\n    {\r\n        return totalSupply;\r\n    }\r\n\r\n    /// @dev Gets the balance of the specified address\r\n    function balanceOf(address _owner) public view returns (uint _balance)\r\n    {\r\n        return listOfOwnerTokens[_owner].length;\r\n    }\r\n\r\n    /// @dev Gets the approved address to take ownership of a given token ID\r\n    function approvedFor(uint256 _tokenId) public view returns (address _approved)\r\n    {\r\n        return approvedAddressToTransferTokenId[_tokenId];\r\n    }\r\n\r\n    /// @dev Gets the list of tokens owned by a given address\r\n    function tokensOf(address _owner) public view returns (uint256[]) {\r\n        return listOfOwnerTokens[_owner];\r\n    }\r\n\r\n    // -----------------------------------------------------------------------------------------------------------\r\n    // --------------------------------------------- Core Public functions ---------------------------------------\r\n    // -----------------------------------------------------------------------------------------------------------\r\n\r\n\t/// @dev Assigns the ownership of the NFT with ID _tokenId to _to\r\n    function transfer(address _to, uint _tokenId) public onlyExtantToken (_tokenId) onlyOwnerOfToken (_tokenId)\r\n    {\r\n        require(_to != address(0));\r\n\r\n        _clearApprovalAndTransfer(msg.sender, _to, _tokenId);\r\n\r\n        emit Transfer(msg.sender, _to, _tokenId);\r\n    }\r\n\r\n    /// @dev Grants approval for address _to to transfer the NFT with ID _tokenId.\r\n    function approve(address _to, uint _tokenId) public onlyExtantToken(_tokenId) onlyOwnerOfToken (_tokenId)\r\n    {\r\n        require(msg.sender != _to);\r\n        require(_to != address(0));\r\n\r\n        approvedAddressToTransferTokenId[_tokenId] = _to;\r\n        emit Approval(msg.sender, _to, _tokenId);\r\n    }\r\n\r\n    /// @dev Remove approval for address _to to transfer the NFT with ID _tokenId.\r\n    function removeApproval (uint _tokenId) public onlyExtantToken (_tokenId)  onlyOwnerOfToken (_tokenId) {\r\n        require(approvedAddressToTransferTokenId[_tokenId] != address(0));\r\n        _clearTokenApproval(_tokenId);\r\n        emit Approval(msg.sender, address(0), _tokenId);\r\n    }\r\n\r\n    /// @dev transfer token From owner to _to\r\n    function transferFrom(address _to, uint _tokenId) public onlyExtantToken(_tokenId)\r\n    {\r\n        require(approvedAddressToTransferTokenId[_tokenId] == msg.sender);\r\n        require(_to != address(0));\r\n\r\n        emit Transfer(ownerOf(_tokenId), _to, _tokenId);\r\n\r\n        _clearApprovalAndTransfer(ownerOf(_tokenId), _to, _tokenId);\r\n    }\r\n\r\n    // -----------------------------------------------------------------------------------------------------------\r\n    // ----------------------------------------------- Internal functions ----------------------------------------\r\n    // -----------------------------------------------------------------------------------------------------------\r\n\r\n    // set the new token owner\r\n    function _setTokenOwner(uint _tokenId, address _owner) internal\r\n    {\r\n        tokenIdToOwner[_tokenId] = _owner;\r\n    }\r\n\r\n    // add a token to the new owner list\r\n    function _addTokenToOwnersList(address _owner, uint _tokenId) internal\r\n    {\r\n        listOfOwnerTokens[_owner].push(_tokenId);\r\n        tokenIndexInOwnerArray[_tokenId] = listOfOwnerTokens[_owner].length - 1;\r\n    }\r\n\r\n    // remove token for the last owner list\r\n    function _removeTokenFromOwnersList(address _owner, uint _tokenId) internal\r\n    {\r\n        uint length = listOfOwnerTokens[_owner].length; // length of owner tokens\r\n        uint index = tokenIndexInOwnerArray[_tokenId]; // index of token in owner array\r\n        uint swapToken = listOfOwnerTokens[_owner][length - 1]; // last token in array\r\n\r\n        listOfOwnerTokens[_owner][index] = swapToken; // last token pushed to the place of the one that was transfered\r\n        tokenIndexInOwnerArray[swapToken] = index; // update the index of the token we moved\r\n\r\n        delete listOfOwnerTokens[_owner][length - 1]; // remove the case we emptied\r\n        listOfOwnerTokens[_owner].length--; // shorten the array's length\r\n    }\r\n\r\n    // when the token move from one user to another, we clear the approval made by the last owner\r\n    function _clearTokenApproval(uint _tokenId) internal\r\n    {\r\n        approvedAddressToTransferTokenId[_tokenId] = address(0);\r\n    }\r\n\r\n    // calls all the internal functions above, to transfer a token from one user to another\r\n    function _clearApprovalAndTransfer(address _from, address _to, uint _tokenId) internal\r\n    {\r\n        _clearTokenApproval(_tokenId);\r\n        _removeTokenFromOwnersList(_from, _tokenId);\r\n        _setTokenOwner(_tokenId, _to);\r\n        _addTokenToOwnersList(_to, _tokenId);\r\n    }\r\n}\r\n",
  "sourcePath": "C:\\Users\\Gaylord\\Google Drive\\The-School-Of-AI\\decentralized_game\\decentralized_game\\contracts\\SimpleERC721.sol",
  "compiler": {
    "name": "solc",
    "version": "0.4.23+commit.124ca40d.Emscripten.clang"
  },
  "schemaVersion": "2.0.0",
  "updatedAt": "2018-04-26T12:34:13.746Z"
}